S01500005049545F64656D6F5F6672646D2E7372656316
S1130000F80B002011040000F1160000F1160000A6
S1130010F1160000F1160000F1160000F1160000C0
S1130020F1160000F1160000F1160000F1160000B0
S1130030F1160000F1160000F1160000F1160000A0
S1130040F1160000F1160000F1160000F116000090
S1130050F1160000F1160000F1160000F116000080
S1130060F1160000F1160000F1160000F116000070
S1130070F1160000F1160000F1160000F116000060
S1130080F1160000F1160000F1160000F116000050
S1130090F1160000F1160000570E00006F0E00006C
S11300A0F1160000F1160000F1160000F116000030
S11300B0F1160000F1160000F1160000F116000020
S1130400FFFFFFFFFFFFFFFFFFFFFFFFFFFFFEFFF9
S113041000200021002200230024002500260027BC
S113042062B601F097F9FEE710B50C0011680129D6
S113043002D0022904D009E0C0B25168884705E01F
S1130440916808709068401C9060FFE72068401C29
S1130450206010BDF0B51C000026050000202870A7
S11304606D1C002A1CD00F68002F09D13020287081
S1130470761C3000F0BD30320F002A706D1C761CE3
S1130480002FF6D03800210000F040FA01000800E7
S113049060433A1A002AEED5D04302003132EBE72A
S11304A00F68002F08D130202870761CE1E737311F
S11304B0070029706D1C761C002FDAD0380021004B
S11304C000F027FA01006143791A0A29EFD230318A
S11304D0EEE7F8B50E0015001F00040005E03A0031
S11304E029003020FFF7A0FF641CB442F7DBF1BD04
S11304F0F8B50E0015001F00040005E03A002900BD
S11305002020FFF791FF641CB442F7DBF1BDF1B585
S113051090B01400002000900D0004E0109A694689
S1130520FFF782FF6D1C2878002800D1C3E125283D
S113053011D00A2804D0109A6946FFF775FF09E024
S1130540109A69460D20FFF76FFF109A69460A203A
S1130550FFF76AFFE6E70027002102E038000127E1
S1130560074300291FD16D1C287820280CD023288C
S113057012D02B2804D02D28F0D0302808D00FE03A
S1130580380002270743ECE7380004270743E8E76D
S1130590380008270743E4E7380010270743E0E75B
S11305A06D1E0121DDE700200290002105E0029A82
S11305B00A235A43101830380290002908D16D1CC0
S11305C028780200303A092AF1D96D1E0121F4E796
S11305D06D1C28782E280BD10021FFE7002908D1B3
S11305E06D1C287830380928F8D96D1E0121F5E7EB
S11305F06D1E6D1C28784C2806D0682802D06C2803
S113060001D002E002E001E000E06D1E6D1C2878DC
S11306100100582971D0622900D1CAE0632900D1B0
S113062013E1642913D0692911D06E2900D13DE169
S11306306F2900D1B2E0702900D1C5E0732900D13F
S11306400BE1752900D1CAE0782956D066E7206805
S1130650241D06900A23012206A907A8FFF7FAFE23
S1130660060007A8801905900698002803D52D20B8
S11306700190761C0DE0B80703D52B200190761C61
S113068007E0780703D520200190761C01E00020C4
S1130690019000200490380711D50198002804D057
S11306A0109A69460198FFF7BFFE01200490109B41
S11306B06A4602993000FFF70CFF029E11E0F8072A
S11306C00FD4109B6A4602993000FFF711FF01987E
S11306D0002804D0109A69460198FFF7A5FE01206E
S11306E004900498002807D10198002804D0109A97
S11306F069460198FFF798FE9AE02068241D03904C
S11307001023002203A907A8FFF7A4FE060007A8E8
S11307108019059000200490380715D5F8060BD5EC
S1130720109A69463020FFF77FFE109A69467820B8
S1130730FFF77AFE01200490109B6A46029930006C
S1130740FFF7C7FE029E18E0F80716D4F80600D596
S1130750B61C109B6A4602993000FFF7C9FEF806E2
S11307600BD5109A69463020FFF75EFE109A694651
S11307707820FFF759FE01200490F8060DD504985F
S113078000280AD1109A69463020FFF74DFE109ACE
S113079069467820FFF748FEB61C49E02068241D0E
S11307A003900823002203A907A8FFF753FE0600BD
S11307B01FE02068241D03900223002203A907A838
S11307C0FFF748FE060014E02068241D0390102360
S11307D0002203A907A8FFF73DFE060009E02068F0
S11307E0241D03900A23002203A907A8FFF732FE61
S11307F0060007A880190590380707D5109B6A469C
S113080002993000FFF765FE029E11E0F8070FD44D
S1130810109B6A4602993000FFF76AFE08E0109ABE
S1130820694605980078FFF7FFFD0598401E05907E
S1130830059800780028F2D1F80705D5109B6A4680
S113084002993000FFF754FE6CE62068241DC0B204
S1130850109A6946FFF7E8FD64E62068241D0190BC
S11308600198002821D0019800F0AAF80600F807A2
S11308700FD4109B6A4602993000FFF739FE08E056
S1130880109A694601980078FFF7CEFD0198401C44
S11308900190019800780028F2D1F80705D5109B43
S11308A06A4602993000FFF723FE3BE62068241DC8
S11308B00099016036E6009811B0F0BD0EB400B5A1
S11308C084B0012100910549019105AA01006846FF
S11308D0FFF71DFE049908B0084700003117000017
S11308E0F446002804D4494200F013F8404260471B
S11308F04042002905D45FD000F00BF84042494241
S11309006047494200F005F84942604703460B43FB
S1130910E6D40022030A8B420BD203098B4219D27C
S113092043088B422ED2411A00D20146524110464E
S11309307047FF2209023FD012068B4205D31212E0
S113094009028B4201D31212090203098B4219D303
S113095000E0090AC3098B4201D3CB01C01A5241FA
S113096083098B4201D38B01C01A524143098B4244
S113097001D34B01C01A524103098B4201D30B012D
S1130980C01A5241C3088B4201D3CB00C01A524152
S113099083088B4201D38B00C01A524143088B4217
S11309A001D34B00C01A5241884200D3401A52412D
S11309B0CFD201461046704708B500F011F808BDC3
S11309C000B501000020002902D1002006E0401CEF
S11309D00A001100491C1278002AF8D100BD000059
S11309E07047000010B504002000083000F028F91A
S11309F0606800F0B1F849480078FB21014047489D
S1130A00017000BF00BF47480078C006FBD44548CA
S1130A1000784006FBD542480078C0B2400901285E
S1130A2007D03F480078C006C00E202101433C484F
S1130A3001703C480078802101433A48017010BDA0
S1130A4010B504002000083000F0FAF8606800F0E7
S1130A5083F832480078FB210140304801702F4868
S1130A6000788006800E802101432C4801702C48B8
S1130A700078EF2101402A48017000BF00BF2948D7
S1130A800078C0B280088007800F0228F7D125487B
S1130A900078C006FBD422480078C0B2400901287F
S1130AA007D01F480078C006C00E202101431C480F
S1130AB001701C480078802101431A48017010BD60
S1130AC010B504002000083000F0BAF8606800F0A7
S1130AD043F812480078FB2101401048017000BF20
S1130AE000BF11480078C006FBD40F4800784006C8
S1130AF0FBD50B480078C0B24009012807D008484C
S1130B000078C006C00E2021014305480170064844
S1130B100078802101430448017010BD0040064064
S1130B2001400640044006400440064000B5010070
S1130B30684A117068490978FE220A4080B200129E
S1130B400100C907C90F1143634801706048007868
S1130B504006FBD500BD000000B5202836D0FA21A0
S1130B600901884217D0FA21490188420AD05B4919
S1130B70884207D0FA218901884215D05849884211
S1130B801BD02AE057480078C721014018200843A9
S1130B905449087021E053480078C72101401020CF
S1130BA008435049087018E04E480078C7210140B6
S1130BB0202008434B4908700FE04A480078C721B9
S1130BC00140202008434749087006E04548007862
S1130BD0C721014043480170FFE700BD80B501789B
S1130BE002290AD1017A10220A430272017A2022D0
S1130BF00A430272FFF7F6FE21E00178032906D1C9
S1130C00017AEF220A400272FFF75AFF17E00178D7
S1130C10052906D1017AEF220A400272FFF710FF7C
S1130C200DE02A480078C0B24009012807D02748BF
S1130C300078C006C00E202101432448017001BD84
S1130C4000B500210278D2B252081300DB07DB0F93
S1130C50002B02D00A000221114302781300DB07A3
S1130C60DB0F002B02D00A00042111430278D2B218
S1130C70D2081300DB07DB0F002B02D00A0020216F
S1130C8011430278D2B212091300DB07DB0F002BE9
S1130C9002D00A00102111430278D2B29208130044
S1130CA0DB07DB0F002B02D00A00802111430E4A20
S1130CB011700078C0B240090100C907C90F0029AA
S1130CC003D009480078C007FBD500BD01400640A9
S1130CD0044006400240064003400640102700003E
S1130CE0204E000000400640005006400121C0068E
S1130CF0C00E81406448016070470121C006C00EE7
S1130D00814062480160704761480068022188435D
S1130D105F49086070475E480068012101435C48F0
S1130D20016070475B49C0B2102242438918896848
S1130D3001220A435749C0B210235843081882605D
S1130D4070475449C0B2102242438918896802226C
S1130D500A435049C0B210235843081882607047B0
S1130D604C49C0B2102242438918896804220A43BC
S1130D704849C0B210235843081882607047454957
S1130D80C0B2102242438918C96801220A4341496A
S1130D90C0B2102358430818C260704738B5040025
S1130DA00D003D480068022101433B48016028785A
S1130DB00100C907C90F002901D0FFF7ACFF28784B
S1130DC0C0B240080100C907C90F002901D1FFF7CB
S1130DD09BFF69682000C0B200F031F86878C0B2A7
S1130DE040080100C907C90F00290ED0E4B2002C45
S1130DF003D01720FFF77AFF02E01620FFF776FFF3
S1130E002000C0B2FFF79DFF02E01620FFF775FF38
S1130E106878C0B280080100C907C90F002903D04F
S1130E202000C0B2FFF79CFF68780100C907C90F12
S1130E30002903D02000C0B2FFF774FF31BD154A6A
S1130E40C0B21023584311507047144AC0B204234F
S1130E5058431150704780B50020FFF790FF0F48AA
S1130E600068002802D00D480068804701BD80B5A5
S1130E700120FFF784FF09484068002802D0074892
S1130E804068804701BD000000E100E080E100E02F
S1130E9000700340007103400C80044010000020E7
S1130EA000B587B003A8102100F0E6F868460C21CD
S1130EB000F0E2F8002051490880002050490880E1
S1130EC04C20FFF733FE0598402101430591069815
S1130ED04C490143069103A800F0D0F86846007A13
S1130EE001210143684601726846007A04210143E6
S1130EF068460172444801900220694608706846B9
S1130F00FFF76CFE00F06FF800F002F807B000BDC8
S1130F10F0B583B00024FF2000F031F90500002073
S1130F2000F031F969464871012000F02CF9694656
S1130F300871022000F027F90700032000F023F9CC
S1130F4006003248FFF7BAFCF6B20096FFB23B0047
S1130F5068460279684641792D48FFF7AFFC822044
S1130F602840822803D101242A48FFF7A7FC8220C5
S1130F702840022803D101242748FFF79FFCA80634
S1130F8003D501242548FFF799FC680603D50124FD
S1130F902348FFF793FC680703D501242148FFF792
S1130FA08DFCA80403D501241F48FFF787FC2805FE
S1130FB003D501241D48FFF781FC680503D50124EE
S1130FC01B48FFF77BFCA80503D501241948FFF74C
S1130FD075FCE4B2012C02D01748FFF76FFC1748E8
S1130FE0FFF76CFCF7BDE0B515480190E120400225
S1130FF002906946134800F0E3F807BD180000208A
S11310001A00002000307000102700005C16000059
S11310108C14000008170000641700004417000037
S113102070170000C0160000C81500001C16000050
S11310303C1600001C1700007C170000D8160000A6
S1131040002D310100B00640130030B41400150027
S1131050103902D310393CC0FCD2490700D30CC06C
S113106000D504C0890002D30280801C002900D569
S1131070027030BC704700000022E5E710B50E2274
S11310800023C024A401002103681900C904C90F66
S113109003681C002405E40F002C01D002239A43AA
S11310A003681C006405E40F002C01D004239A4358
S11310B003681C00A405E40F002C01D008239A4304
S11310C00378DB0703D51300802212031A43036855
S11310D01C006407E40F002C03D013008022D2010B
S11310E01A4303681C00E406E40F002C03D0130029
S11310F0802252011A4303681C00A407E40F002C49
S113110003D01300802212021A4303681C00A406B1
S1131110E40F002C03D01300802212011A43036849
S11311201C006406E40F002C03D013008022D200BC
S11311301A4303681C002407E40F002C03D0130097
S1131140802292011A43130042795207520F12046B
S11311501A431300027912061A4313000268D209D3
S11311609207920F12021A438368C4680E48026001
S11311700E4803600E4804600E48016010BD0E491D
S113118009680840704781B069460C4A13680B60CF
S1131190094909686A46C0B2105CC1400807000FDB
S11311A0C0B201B0704700000480044008800440CD
S11311B00C80044018800440008004409417000010
S11311C070B504004D688E682F48844209D02F48BA
S11311D0844206D02E48844203D04E212D4800F08C
S11311E05DF82948844207D12B48006880214903CF
S11311F001432948016011E02448844207D126486C
S113120000688021890301432348016006E02248E5
S113121000688021C90301431F480160E078F3217D
S11312200140E1700020A0702809710840183100C5
S1131230FFF76FFB2278E0211140020092B2120AFC
S1131240D206D20E0A4322706070E0780C2101436A
S1131250E17070BD10B504000B48844209D00B48FE
S1131260844206D00A48844203D08121094800F010
S113127015F820798006FCD5E07910BD00B5027917
S11312801206FCD5C17100BD00A0064000B00640A6
S113129000C00640181500000C80044080B50A0008
S11312A001000648FFF70AFB054800E0401E00283D
S11312B0FCD103480028F7D0401EFBE7A41500002A
S11312C0A086010030B585B06D4602ACFFF7E8FD9D
S11312D02748FFF7F3FA274800688021890401436F
S11312E0244801602448132169602978FE220A40B9
S11312F02A702978FD220A402A70697802220A435A
S11313006A70697804220A436A70697801220A4380
S11313106A7060602078FE21014021702078FD21F0
S1131320014021706078FD21014061706078FB21EB
S11313300140617060780121014361702100002047
S1131340FFF72CFD29000120FFF728FD0B490120A0
S1131350FFF77BFD0A48FFF77DFF0100C9B208488B
S1131360FFF78CFFF6E78020800406490860704789
S1131370FC15000054F00F403F420F0067130000BB
S113138000B006404CF00F4080B51D481D4988420E
S11313900CD0002008E01B49042242438958184A13
S11313A004234343D150401C3028F4D3144800F0A4
S11313B03BF81549154A1648801A03E013780B7058
S11313C0521C491C0300581E002BF7D11149124826
S11313D0401A02E000220A70491C0200501E002A32
S11313E0F8D10E490E4A0F48801A03E013780B70A7
S11313F0521C491C0300581E002BF7D101BD00BF2D
S113140000FCFF1F000000000000000000000000BE
S113141000000000100000201C0000201C00002020
S1131420C0000000C00000000149086070470000CF
S113143008ED00E030B4144800780D4909780D4AED
S113144012880D4B1B884006400E040020202043C8
S11314500A4C0B4D2C800B4C094D2C80044C2170F4
S113146004490A8004490B800749087030BC70475E
S1131470012005400420054006200540C520000049
S113148002200540D9280000002005400A204661BA
S11314906D696C6C79204944203D20307825782C86
S11314A0205375622D66616D696C79204944203D35
S11314B020307825782C205265766973696F6E2008
S11314C04944203D20307825782C2050696E2049ED
S11314D044203D2030782578200A000070B4012192
S11314E0002313E00468001D0C4202D04D466D1E1B
S11314F064192360241D121F042AFAD225009607BA
S113150001D52380AD1C0A4000D02B700268001D59
S1131510002AE7D170BC7047463A5C6C6576617509
S1131520785C4B4558585F4452565F4C49425F4F74
S11315304C445C7372635C647269766572735C7547
S11315406172745C756172742E6300000A2A2A2A1F
S11315502A64656661756C745F69737220656E7464
S113156065726564206F6E20766563746F722025E2
S1131570642A2A2A2A2A0D0A0A00000010B50749FB
S113158079441831064C7C44163404E0081D0A687A
S1131590891888470100A142F8D110BD500000000D
S11315A05C000000417373657274696F6E2066613C
S11315B0696C656420696E202573206174206C69F0
S11315C06E652025640A00002053746F70204D6FEF
S11315D064652041636B6E6F776C65646765204555
S11315E072726F722052657365740A00F1FEFFFF18
S11315F00C00000010000020000000000A52756E6C
S11316006E696E6720746865205049545F64656D27
S11316106F2070726F6A6563742E0A00204D444D0A
S11316202D41502053797374656D20526573657430
S113163020526571756573740A00000020536F664B
S113164074776172652F535953524553455452452B
S1131650512052657365740A000000000A0A2D2D9A
S113166053797374656D204C6F6720424547494E2A
S1131670532D2D0A0A00000000F00BF8002801D0B9
S1131680FFF77CFF0020C046C046FFF71BFE00F0BA
S113169002F80120704780B500F002F801BD000097
S11316A00746384600F002F8FBE7000080B5C04664
S11316B0C046024A11001820ABBEFBE72600020018
S11316C0204C6F7373206F6620436C6F636B2052E2
S11316D0657365740A0000000A2D2D5379737465CF
S11316E06D204C6F6720454E44532D2D0A0A00008F
S11316F080B5034801680348FFF7E0F8FEE70000FF
S113170004ED00E04C15000020506F776572204F07
S11317106E2052657365740A0000000020436F72E6
S113172065206C6F636B75702052657365740A0075
S113173080B50100C9B20248FFF7A0FD01BD000059
S113174000B006402057444F472052657365740A21
S11317500000000080B5FFF76DFEFFF715FEFFF7F0
S1131760B1FDFEE7204C56442052657365740A00AF
S11317702050696E2052657365740A0053574420E3
S113178052657365740A0000C046C046C046C04630
S10B1790FFF772FF1C1814108E
S90317895C
