S01B00006C65766175785F647269766572735F6672646D2E737265630E
S1130000F80B0020110400008566000085660000DE
S11300108566000085660000856600008566000030
S11300208566000085660000856600008566000020
S11300308566000085660000856600008566000010
S11300408566000085660000856600008566000000
S113005085660000856600008566000085660000F0
S113006085660000856600008566000085660000E0
S1130070511700005B17000065170000856600003B
S113008085660000856600008566000085660000C0
S11300906B62000085660000A9560000BD56000092
S11300A0715A0000856600008566000085660000C0
S11300B08566000085660000856600008566000090
S11300C010B582B004006946200001F0BBFC20009A
S11300D001F0BCFC60600020A060200016BD80B56B
S11300E003000800190001F0DBFC02BD10B5040098
S11300F0E4B20A2C02D10D2001F0A4FD2000C0B20C
S113010001F0A0FD10BD704710B5040001E001F03E
S1130110A3FD200001F0DAFD002805D103480068A2
S11301200100F4D08047F4E710BD00BFB402002002
S113013080B5D2B200F001F802BD10B50400100081
S11301401D4A22602071A1600121C0B201F000FEAD
S1130150200010BD38B5040015002A00D2B22000DA
S1130160FFF7E6FF1548206000212800C0B201F027
S1130170EFFD200032BD80B5C9B2002903D000795B
S113018001F021FF02E0007901F03AFF01BD10B552
S11301900400C9B22000226892689047200010BD74
S11301A080B5007901F0F5FE01BD80B5C9B20268E1
S11301B09268904701BD0000E8680000A466000052
S11301C0124207D08B0706D00B78491C0370401CE1
S11301D0521EF7D87047830706D00B78491C03706A
S11301E0401C521EF9D1704770B4103A03D378C939
S11301F0103A78C0FBD2530701D318C918C001D5EF
S113020008C908C0D20704D30B880380891C801C4A
S1130210002A01D50B78037070BC704700B501004B
S11302200020002902D1002006E0401C0A00110031
S1130230491C1278002AF8D100BD84300068704748
S113024080B503F00AFF02BD00B58068002801D123
S1130250012000E00020C0B200BD38B504000D004C
S1130260200003F0FCFE2A000100200003F0FEFE43
S113027031BD10B582B004006946200003F06DFF63
S1130280200016BD0800704780B503F06AFF02BD68
S113029010B50400200003F06DFF6060606803F097
S11302A0C9F801210170200000F00FF861680160B5
S11302B0200003F0BCFA61680160200003F0ACF890
S11302C0616801600020A06010BD80B5406803F043
S11302D0B3FA02BD006870471130704710B50400CE
S11302E0200004F064FE200010BD70470830704701
S11302F0001D704780B54068FFF7FAFF02BD80B566
S11303004068FFF7F2FF02BD10B5040003E02000CF
S1130310FFF7EBFF04682000FFF7E7FF0068FFF733
S1130320DBFF00780028F2D0200010BD80B54068C3
S1130330FFF7DCFF02BD00000A2A2A2A2A64656648
S113034061756C745F69737220656E74657265643F
S1130350206F6E20766563746F722025642A2A2AC2
S11303602A2A0D0A0A000000463A5C6C657661751B
S1130370785C4B4530325F4350505F4452565C7357
S113038072635C50776D5F696D706C2E6370700082
S1130400FFFFFFFFFFFFFFFFFFFFFFFFFFFFFEFFF9
S113041000200021002200230024002500260027BC
S113042062B606F0BDFAFEE780B57548007800288C
S113043009D10120724908707248FFF741FE724ADF
S1130440A449FFF74CFE01BDAD4800688021890135
S11304500143AB4801607047A94800688021090145
S11304600143A74801607047A54800688021C9007E
S11304700143A3480160704780B500F0F5FC0A20F1
S1130480FFF734FE01BD80B50020009002E0009823
S1130490401C00900098C8498842F8DB01BD80B533
S11304A00C20FFF731FE002806D03922A049FFF7BF
S11304B051FECC49086002E00020CA49086001BD31
S11304C080B50121C7480068FFF761FEC548006890
S11304D0002806D0C3480068C24909680968496809
S11304E0884701BD00B585B0312003909B48029038
S11304F09B4801909B48006800909B4B9B4A9C49F9
S1130500D14800F00FFF05B000BD80B50121B5480A
S11305100068B44A1268126892689047FFF7B3FF04
S11305200021B0480068AF4A126812689268904788
S1130530FFF7A9FF0121AB480068FFF728FEFFF78A
S1130540A2FF0021A7480068FFF721FEFFF79BFFE9
S11305500121A4480068FFF728FEFFF794FF00215B
S1130560A0480068FFF721FEFFF78DFF01219D4899
S11305700068FFF715FEFFF786FF01219948006820
S1130580FFF70EFEFFF77FFF01BD80B5FFF7AAFF5F
S113059001BD80B50C20FFF7B7FD002806D0272247
S11305A06349FFF7D7FDD349086002E00020D14931
S11305B0086001BD80B501218A480068FFF7E7FDA6
S11305C0CC480068002806D0CA480068C9490968B0
S11305D009684968884701BD00B585B06220039069
S11305E05E4802905E480190984800680090984BDD
S11305F0984A9949CE4800F095FE05B000BD000028
S1130600BE020020EC000020B002002080B50121D1
S1130610B8480068B74A1268126892689047FFF7B2
S113062032FF0021B3480068B24A12681268926827
S11306309047FFF728FF0121AE480068FFF7A7FDA8
S1130640FFF721FF0021AB480068FFF7A0FDFFF78B
S11306501AFF0121A7480068FFF7A7FDFFF713FF62
S11306600021A4480068FFF7A0FDFFF70CFF01215B
S1130670A0480068FFF794FDFFF705FF01219D489E
S11306800068FFF78DFDFFF7FEFE01BD80B5FFF7A3
S1130690A3FF01BD80B59820FFF736FD002807D0E1
S11306A0E1225202944900F038FFCE49086002E08A
S11306B00020CC49086001BD80B5CA480068002804
S11306C006D0C8480068C749096809684968884766
S11306D001BD0000E369000000B585B090200390DF
S11306E01E4802909A4801909A48006800909A4BDC
S11306F09A4A9B49CD4800F015FE05B000BD0000A4
S11307000880044000B585B06846A0491422FFF76C
S11307106BFD11226946B348006800F056FFB148EA
S1130720006800F083FF0028F9D005B000BD000088
S113073040F00F4000B585B09A200390074802901E
S113074093480190834800680090924B834A9249F1
S1130750B64800F0E7FD05B000BD000000670000EA
S1130760446A00001000002034650000C104000049
S11307700B0500001FB568469B491022FFF734FDA6
S1130780002415E06846042161434058FFF746FD04
S1130790020068460421614341589248006800F011
S11307A014FF9048006800F041FF0028F9D0641C51
S11307B0042CE7D31FBD000040420F0000B585B0F4
S11307C0AB2003909A4802909A48019061480068CF
S11307D00090994B614A9949944800F0A3FD05B0F3
S11307E000BD0000C8000020E0B59F48FFF744FEAC
S11307F07C480068FFF721FD0028F9D0794800689B
S1130800FFF71BFD94210091B62300220100012073
S113081000F042FC012302AA01A97248006800F01A
S1130820E3FE94200090BA2300220299012000F0F4
S113083033FC94200090BB23002268460179612098
S113084000F02AFC07BD00009F04000014000020F3
S11308504C650000B50500000D06000000B585B02C
S1130860BE20039072480290944801903948006871
S11308700090934B394A9D496C4800F053FD05B0F4
S113088000BD10B594B09A48FFF7F6FD04A84021C6
S113089000F0AAFF02A89E490CC90CC00839083808
S11308A0062450480068FFF7C8FCA042F9D14D481F
S11308B00068FFF7C2FC94210091CB2300220100C1
S11308C0200000F0E9FB402301AA04A94548006880
S11308D000F08AFE94200090CF230022019920008A
S11308E000F0DAFBD023002204A902A800F016FCD1
S11308F014B010BDCC00002000B0064080B5FFF756
S1130900EBFEFFF717FFFFF7A9FFFFF757FF01BD46
S113091080B50820FFF7F8FB002804D000F066FF3C
S11309209A49086002E000209849086001BD00006F
S11309309305000080B595480068002806D09348C8
S113094000689249096809684968884701BD000040
S1130950506A00001800002064650000B906000019
S11309600507000000B585B0F420039030480290DC
S113097087480190874800680090874B874A8849D8
S11309808F4800F0CFFC05B000BD000014670000E4
S11309905C6A00007C6500007507000038B581487A
S11309A0FFF76AFD7948006845687F482C1881483C
S11309B0FFF762FD280000F0AEFA89A0FFF75CFDA6
S11309C0724800684568A542FAD37B48FFF754FD96
S11309D07A48FFF751FD280000F09DFA80A0FFF748
S11309E04BFD31BDD00000207069000080B5FFF7D9
S11309F0B9FF01BD80B51020FFF786FB002804D0A5
S1130A0000F002FF7749086002E0002075490860A1
S1130A1001BD80B573480068002806D0714800689D
S1130A207049096809684968884701BD950600004E
S1130A3000670000CC6A000028670000E907000096
S1130A4000B585B0FF20283003905E4802905E48D0
S1130A5001905E48006800905D4B5E4A5E496448C0
S1130A6000F060FC05B000BD3C67000038B55B4891
S1130A70FFF702FD5B48006800F0D4FE05005A4809
S1130A802C184C48FFF7F8FC280000F044FA54A056
S1130A90FFF7F2FC5348006800F0C4FE0500A542CD
S1130AA0F8D35248FFF7E8FC4448FFF7E5FC280078
S1130AB000F031FA4AA0FFF7DFFC31BD686A00009C
S1130AC0F465000080B5FFF7BBFF01BD80B50C20C5
S1130AD0FFF71AFB002804D000F0A6FE4A4908607C
S1130AE002E000204849086001BD000083080000BE
S1130AF00C66000080B544480068002806D04248CF
S1130B0000684149096809684968884701BD0000CF
S1130B10D46A000000B585B0AE2040000390294897
S1130B20029034480190344800680090334B344AB2
S1130B303449394800F0F6FB05B000BD38B53348F8
S1130B40FFF79AFC3048006800F07CFE050030484E
S1130B502C181848FFF790FC280000F0DCF920A0BE
S1130B60FFF78AFC2848006800F06CFE0500A542E7
S1130B70F8D32848FFF780FC1048FFF77DFC2800D5
S1130B8000F0C9F916A0FFF777FC31BDD4000020AE
S1130B90106900001C000020886200003509000074
S1130BA09D090000906000001027000080B5FFF749
S1130BB0B1FF01BD24660000006100005067000021
S1130BC011090000006700002069000020000020D7
S1130BD0C0630000130A00006D0A0000C860000032
S1130BE000000000D80000208813000034610000D9
S1130BF0F50900003069000024000020B062000004
S1130C00F50A00003D0B0000DC0000208C5F0000B2
S1130C103075000068610000CD0A0000704770471D
S1130C2000B585B072480390354802907148019030
S1130C30714800680090714B714A7249724800F023
S1130C4071FB05B000BD000080B5FFF7FDFBFFF7A9
S1130C500BFCFFF701FC0121684600F056FE6B4ACD
S1130C60002100F08AFEFFF70EFC684A68496846D6
S1130C7000F083FEFFF707FC644A6649684600F00B
S1130C807CFEFFF700FC614A6349684600F075FE8C
S1130C90FFF7F9FB5D4A6149684600F06EFE01BD4D
S1130CA080B5FFF7BDFF01BD7047704700B585B043
S1130CB0A520800003901248029059480190594899
S1130CC000680090584B594A59495A4800F02AFB89
S1130CD005B000BD10B582B008221D21684600F0A1
S1130CE07DFE00F099FE0400534800F0BDF8042195
S1130CF0A4B2200000F03CF950A0FFF7BDFB13BDE7
S1130D000067000000B585B04D4803904D4802903F
S1130D104D4801904348006800904C4B434A4C496D
S1130D20444800F0FFFA05B000BD000010B582B0E1
S1130D3008221E21684600F051FE00F06DFE0400FA
S1130D40444800F091F80421A4B2200000F010F906
S1130D503AA0FFF791FB13BD00B585B03E48039060
S1130D60384802903D4801902E48006800903C4B62
S1130D702E4A3C492F4800F0D5FA05B000BD0000CA
S1130D8010B582B008221621684600F027FE00F054
S1130D9043FE04002F4800F067F80421A4B22000A9
S1130DA000F0E6F825A0FFF767FB13BD80B5FFF759
S1130DB07DFFFFF7A7FFFFF7CFFF01BD80B5FFF76A
S1130DC062FB204800F02CFAFFF7F0FFFFF768FF02
S1130DD0FFF70CFEFFF7EAFEFFF774FEFFF78EFD48
S1130DE0FFF7D3FBFFF752FC00F039FA01BD000016
S1130DF06F020000DC6A0000280000206467000025
S1130E001F0C0000490C00001D0C0000A08601000E
S1130E10FF0F0000FF1F0000FF3F0000FF7F0000E6
S1130E20E46A00002C00002078670000AB0C00008E
S1130E30D50C0000A90C000040690000000000006F
S1130E40A102000000670000EC6A00008C6700004B
S1130E502D0D000050690000AE020000F46A00008D
S1130E6060690000810D000010B50400002C0BD156
S1130E7010BD5C20FFF73AF97820FFF737F902211B
S1130E80207800F075F8641C20780028F0D02078D1
S1130E9020385F2803D22078FFF728F9F3E7207879
S1130EA00D2806D15C20FFF721F97220FFF71EF907
S1130EB0E9E720780A28DCD15C20FFF717F96E20D7
S1130EC0FFF714F9DFE738B505000C00E4B2E006DB
S1130ED003D5280000F01FF81CE0E4B2A0060CD5EE
S1130EE06C48E4B22107090F042251434018001F43
S1130EF00068284000F01CF80CE03020FFF7F6F8FA
S1130F007820FFF7F3F82007000F4100C9B228004A
S1130F1000F02EF831BD10B50400002C04D52D20AE
S1130F20FFF7E4F860420400200000F001F810BD6F
S1130F3038B50500012401E00A20444328002100BB
S1130F4000F00DFE0A28F7D22800210000F007FE69
S1130F500A2100F004FE08003030C0B2FFF7C6F8E2
S1130F6020000A2100F0FBFD0400002CECD131BD6F
S1130F7038B505000C0003E03030C0B2FFF7B6F816
S1130F80E4B2002C0CD0641EA0002900C140080764
S1130F90000F0A28F0D33730C0B2FFF7A7F8EFE705
S1130FA031BD80B55348FFF75FFF01BD80B552489E
S1130FB0FFF75AFF01BD10B50C00FFF755FF3A20AB
S1130FC0FFF794F82000FFF7A6FF3A20FFF78EF80A
S1130FD04A484068FFF748FF3A20FFF787F810BDFA
S1130FE080B5010045480068FFF7E5FF4148FFF779
S1130FF03BFF3A20FFF77AF801BD10B50400002C3E
S11310001ED03F48FFF730FF3C488068002814D0CA
S11310103C48FFF729FF39488068FFF725FF374828
S1131020C068002806D03848FFF71EFF3348C06860
S1131030FFF71AFF3248FFF717FF2000FFF714FFEE
S113104010BD38B505000C003048FFF70DFF002D2A
S113105009D02720FFF74AF82800FFF705FF2720CB
S1131060FFF744F802E02A48FFF7FEFE2948FFF79D
S1131070FBFE002C09D02720FFF738F82000FFF7EB
S1131080F3FE2720FFF732F802E02148FFF7ECFED9
S113109031BD000074640000F8B505000C001700B1
S11310A018001649096A002903D11449496A00291C
S11310B000D01EE0A5421CD0FFF792FF1348FFF7B3
S11310C0D3FE069E3100C9B22800FFF7FCFE11488A
S11310D0FFF7CAFE3100C9B22000FFF7F4FE380062
S11310E0FFF78BFF01200549086201210A4800F03F
S11310F099FDF1BDFC6A0000506B0000380000202F
S1131100546B0000986A0000A46A0000746A00002E
S1131110046B00000C6B00006000002070B504003C
S11311200D00160018001C49096A002903D11A4948
S1131130496A002900D02DE0002C12D0002D10D0D7
S1131140002100E0491C625C002A02D16A5C002A8A
S11311500CD0625C6B5C9A42F4D001210E4A11629D
S113116004E0AC4202D001210B4A11620A49096A27
S113117000290FD0FFF734FF29002000FFF761FF9B
S11311803000FFF73AFF01200349086201210348B8
S113119000F048FD70BD0000380000206000002011
S11311A010B504004748006A002803D14548406A46
S11311B0002800D033E043480068FFF7FCFEFFF747
S11311C0F0FE002C24D03A20FEF790FF3D488068C2
S11311D0002814D03D48FFF747FE3A488068FFF7DF
S11311E043FE3848C068002806D03948FFF73CFE63
S11311F03448C068FFF738FE3648FFF735FE2078DC
S1131200202802D02020FEF771FF2000FFF72CFEDB
S113121001202C49086201212B4800F003FD10BD78
S113122028490860002027494860002025490861B2
S11312300020244948610020224988610020214976
S1131240C86100201F49086200201E49486200202E
S11312501C49886000201B49C8607047000080B5A5
S11312600A20FEF743FF1C48FFF7FEFD0A20FEF7A5
S11312703DFF14484069FFF74EFE1848FFF7F4FDA0
S113128010488069FFF747FE1548FFF7EDFD0D484C
S1131290C069FFF740FE1348FFF7E6FD0A20FEF79A
S11312A025FF08488069002802D1FFF77FFE01E08E
S11312B0FFF777FE0A20FEF719FF0248806902BD96
S11312C0000000003800002060000020986A000040
S11312D0A46A0000546B00006C660000146B0000EC
S11312E0806A00008C6A000080B50A00002801D1E1
S11312F0012008E00100100000F0BEFE002801D02B
S1131300012000E0002002BD80B50100354880685E
S1131310FFF7EAFF02BD80B501003248C068FFF75D
S1131320E3FF02BDF8B504000F0015001E00079886
S1131330FFF7EAFF00283CD00698FFF7ECFF0028EF
S113134037D00898284908602748466009982649F4
S1131350086124480068002803D12E20FEF7C6FE49
S113136002E03000FFF780FD1F484069401C1E4921
S1131370486100F01FF800F03BF81C4800F046FC00
S1131380002801D1A047B847184800F03FFC0028C6
S113139000D1A847154800F039FC002807D100F017
S11313A02BF81148006A002801D100F00BF800F076
S11313B043F8F1BD00201D4908600020C0431C49CA
S11313C00860704780B50020C04319490860174879
S11313D00068002804D0044801691648FFF7E0FEBD
S11313E001BD00000401002038000020600000203E
S11313F0002027490860704700B512E024480068BF
S1131400401E2349086023482149096808225143A2
S1131410401840681F491E4A126808235A438958D5
S113142008601B4800680128E8DA00BD14010020A8
S1131430300000201868000080B51848406A002871
S113144008D01648C069401C1449C8610A20FEF738
S11314504DFE16E01148006A00280AD10E480068C3
S113146000280ED00E48FFF7FFFC0A20FEF73EFED0
S113147007E00A488069401C084988610A20FEF791
S113148035FE00200549086200200449486201BD78
S1131490A8020020180100200401002038000020C8
S11314A01C6B000010B50400200000F071F820004F
S11314B000F0E6FD10BD80B5AD4800F0E8FDAD4A92
S11314C0AD49FEF70CFE01BD0121C006C00E8140EE
S11314D0AA48016070470121C006C00E8140A84897
S11314E001607047C0797047C1717047007920214D
S11314F008407047C17880220A43C2707047C1789F
S113150020220A43C2707047C1784906490EC1704F
S11315107047007980210840704772B583B0040099
S11315201600984820608021002225002D1D2800E7
S113153000F032F90020842160500020882160509E
S113154000208C2160500020902160500398942149
S11315506050039D8C48019002960098012101433C
S113156000916946280000F09BFD72B603A98048EB
S113157000F056FE046062B62800FFF7C0FF2000AA
S113158000F0B8F840B2FFF79FFF200004B070BD30
S113159038B504007B4820609420255872B6210099
S11315A09431734800F071FE62B60121280000F006
S11315B0C7FD0221280000F0C3FD200000F09AF8C6
S11315C040B2FFF788FF200032BD10B5130094220B
S11315D08258902401518C214350002188300160AD
S11315E01000FFF787FF10BDFEB504000D0072B6B2
S11315F0842020580090694602A800F04AFE06683C
S11316000098871B32002100091D2800FEF7D8FD31
S11316103A00A119091D25002D1D280000F042FEE5
S1131620019806608434276062B6F7BD00B588214E
S113163041588C300068814201D1012000E0002033
S1131640C0B200BD70B504009420255803212800C1
S113165000F0D8FD002802D02800FFF743FF042142
S1131660280000F0CFFD002802D02800FFF73AFF41
S11316708420205880280FD02800FFF737FF002847
S11316800AD0842026583000401C84216050280051
S1131690FFF728FFA1190871882020588C21615870
S11316A088421DD02800FFF734FF002818D0882076
S11316B020580100491C8822A15090216158095CDE
S11316C02800FFF711FF882020588C216158884298
S11316D003D12800FFF718FF02E02800FFF70AFFF4
S11316E02800FFF70CFF200000F004F840B2FFF7D9
S11316F0EBFE70BD00B5943000682449884206D0E2
S11317002349884205D02349884204D005E00C20AF
S113171004E00D2002E00E2000E00C2000BD01B525
S113172082B002A9124800F0D0FD0190104800F0E8
S1131730F1FD0090694601A800F0F3FD002806D0F1
S113174002A90B4800F06CFD0068FFF77BFF07BDA2
S113175080B50E48FFF7E3FF01BD80B50C48FFF7E5
S1131760DEFF01BD80B50B48FFF7D9FF01BD0000C6
S1131770F8000020B0020020FF69000000E100E052
S113178080E100E088690000002D310100A00640DE
S113179000B0064000C006401206130A1A43130C98
S11317A01A4300BF094205D0830705D00270401CCC
S11317B0491EF9D170470000130030B4140015001D
S11317C0103902D310393CC0FCD2490700D30CC0F5
S11317D000D504C0890002D30280801C002900D5F2
S11317E0027030BC704700000022E5E710B5040029
S11317F0200000F0A0FD034820600020606020006D
S113180010BD00BFE066000010B50400200000F029
S113181097FD034820600020E060200010BD00BF59
S11318200C6500004068704710B50400200000F00B
S11318302BFE034820600020A060200010BD00BFE4
S11318402465000040687047416F40220A434267A4
S1131850704700B5416F490603D5416D04220A4320
S1131860426500BD10B50400606D400704D5606D8D
S113187001210143616509E02000FFF7EAFF606D83
S11318800121014361652000FFF7DEFF10BD00B5B3
S11318900022426089B281604A49884209D1416D7F
S11318A0C90706D598214158802292000A439830EE
S11318B0026000BD00B592B2C9B208234B43C318FD
S11318C01A61404A90421FD1426DD2071CD5C9B259
S11318D0022904DA416E20220A4342660DE0C9B2AD
S11318E0042905DA416E802292010A43426604E02B
S11318F0416E802292030A43426698214158802215
S113190092000A439830026000BD38B505000C000F
S11319102C702D480078002827D101220121294864
S113192000F002FE2748FFF79DFF28492548FFF7EE
S1131930AEFF00220121234800F0E6FD01202249E8
S11319400870224A00211F48FFF7B4FF1F4A0121F3
S11319501C48FFF7AFFF1D4A02211A48FFF7AAFFF0
S11319601A4A03211748FFF7A5FF184A2100C9B2F4
S11319701448FFF79FFF280032BD70B506000D0024
S11319801100134800F0EBF8040080204002844268
S113199003D327210F4800F05BFE0F48401B604330
S11319A00D4900F0DCF80500210089B20548FFF775
S11319B06EFF2A0092B231780248FFF77BFF70BDB8
S11319C00000000000A00340BC020020102700001B
S11319D0002D310168030000FFFF000030B583B023
S11319E0040092B2002A00D101222280A1700821B1
S11319F000226D462800FFF7CFFE02206946487199
S1131A0000206946087102206946887169460C48BD
S1131A1000F06DFE20003EBD70B5040000200025DE
S1131A2008E00600A178064800F0E5FE0100300059
S1131A3040186D1C2188ADB28D42F2D380B270BDC6
S1131A4000B0034080B500F01BFF02BD38B50400B0
S1131A500121200000F01DFF00900025009800F0F7
S1131A601EFF6A4601002000401C00F019FF6D1C97
S1131A70009800F01BFF01006A46641C200000F07F
S1131A800FFF009832BD000038B505000C00A542D8
S1131A9005D02868401980472D1DA542F9D131BDD4
S1131AA0F8B504000F001500C046C0461C48016884
S1131AB0002900D11B491C4A914201D3002601E0B0
S1131AC00E000C310160C046C046002E01D1012039
S1131AD0F2BD37607460B5600020F2BD80B50020AF
S1131AE000F001F801BDF8B50D4C2668350000D1B1
S1131AF0F1BD0C4F0BE0050006000C3D69680800C1
S1131B0005D0002068602868002806D0884720682F
S1131B108642F0D1BD42F0D1F1BD8847F7E700001D
S1131B20AC020020C0020020A0040020F4460028DB
S1131B3004D4494200F013F840426047404200296F
S1131B4005D45FD000F00BF8404249426047494257
S1131B5000F005F84942604703460B43E6D40022EF
S1131B60030A8B420BD203098B4219D243088B42DE
S1131B702ED2411A00D20146524110467047FF222C
S1131B8009023FD012068B4205D3121209028B427E
S1131B9001D31212090203098B4219D300E0090A86
S1131BA0C3098B4201D3CB01C01A524183098B4232
S1131BB001D38B01C01A524143098B4201D34B011B
S1131BC0C01A524103098B4201D30B01C01A52417E
S1131BD0C3088B4201D3CB00C01A524183088B4205
S1131BE001D38B00C01A524143088B4201D34B00EE
S1131BF0C01A5241884200D3401A5241CFD2014602
S1131C001046704708B500F053FE08BDF0C04246C8
S1131C104B4654465D466E467746FCC02838F0C8AD
S1131C2000207047002900D1491C1030FCC8BE4672
S1131C30B546AB46A246994690462838F0C80800F7
S1131C407047000080B50100C9B2024800F072FA82
S1131C5001BD000000B0064080B500F02AFE01BDC1
S1131C6000B510383649096800E00968814202D29B
S1131C700A68904207D30A689142F6D3814202D39C
S1131C800A689042F1D2426810235A4382180B68C2
S1131C909A4208D142680B685B68D21842600A68AD
S1131CA01268026001E00A6802604A6810235A431D
S1131CB08A18824206D14A684368D2184A6000688A
S1131CC0086000E008601E48016000BD10B5010016
S1131CD01C481D4B0F310909491C194A1268002A76
S1131CE00ED11A1A12094260184A0260174A10608B
S1131CF00020164A50601548114A106010480268C6
S1131D00106801E00200006843688B4211D3436805
S1131D108B4202D10168116007E043685B1A43609B
S1131D20436810246343C018416005490A601030B9
S1131D3004E0034A12689042E4D1002010BD000080
S1131D40B0000020A0040020A0080020A000002073
S1131D5038B504000D00E4B2482C04DBFF21463101
S1131D60A64800F075FCE4B2202C60DAEDB2002D38
S1131D7005D0022D2FD018D3032D42D0BBE0AD489F
S1131D8000680121A1400143AA480160AA480068F3
S1131D900121A1400143A8480160A848006801212D
S1131DA0A1408843A5490860A5E0A2480068012134
S1131DB0A14088439F4908609F4800680121A140D1
S1131DC088439D4908609D4800680121A1408843DB
S1131DD09A4908608FE0974800680121A140884330
S1131DE094490860944800680121A14088439249BD
S1131DF00860924800680121A14001438F480160B6
S1131E0079E08C4800680121A140014389480160C0
S1131E10894800680121A14001438748016087483F
S1131E2000680121A14088438449086063E0E4B26A
S1131E30402C60DA203CEDB2002D05D0022D2FD0CD
S1131E4018D3032D42D056E07D4800680121A140FB
S1131E5001437B4801607B4800680121A1400143A4
S1131E6078480160784800680121A1408843764998
S1131E70086040E0724800680121A140884370492D
S1131E800860704800680121A14088436D490860DA
S1131E906D4800680121A14088436B4908602AE02D
S1131EA0674800680121A140884365490860654886
S1131EB000680121A14088436249086062480068C3
S1131EC00121A14001436048016014E05C480068BE
S1131ED00121A14001435A4801605A480068012188
S1131EE0A140014357480160574800680121A140BF
S1131EF0884355490860EDB2032D49D1E4B20C2C56
S1131F000ED00D2C13D0182C18D0192C1DD0202C29
S1131F1022D0212C27D0382C2CD0392C31D037E0AA
S1131F204A480068012101434848016030E04748BD
S1131F300068022101434548016029E043480068E4
S1131F40042101434148016022E04048006808211F
S1131F5001433E4801601BE03C48006810210143F6
S1131F603A48016014E039480068202101433748A9
S1131F7001600DE0354800684021014333480160A9
S1131F8006E0324800688021014330480160FFE7E1
S1131F9031BD10B50400E4B2482C03DB2C491748CA
S1131FA000F056FBE4B2202C04DA0120A0402949B9
S1131FB0086007E0E4B2402C04DA203C0120A04091
S1131FC02549086010BD10B50400E4B2482C03DBB9
S1131FD022490A4800F03CFBE4B2202C04DA012038
S1131FE0A0401F49086007E0E4B2402C04DA203C1A
S1131FF00120A0401B49086010BD0000CC61000016
S113200010B50400E4B2482C03DB1749174800F06C
S11320101FFBE4B2202C04DA0120A040144908601C
S113202007E0E4B2402C04DA203C0120A04011492E
S1132030086010BD14F00F4018F00F4004900440E5
S113204054F00F4058F00F40089004400C900440A6
S1132050330200000CF00F404CF00F405B02000014
S113206004F00F4044F00F4083020000CC610000F4
S113207008F00F4048F00F4080B500F01FFC02BD8F
S1132080002800D1704780B5FFF7EAFD01BD1CB5FB
S113209004006A4601A9200000F02CFC200016BDB3
S11320A070B504004D688E684E48844209D04E488D
S11320B0844206D04D48844203D04E214C4800F05F
S11320C0C7FA4848844207D154480068802149032C
S11320D001435248016011E04348844207D14F480C
S11320E000688021890301434C48016006E04B48A5
S11320F000688021C903014348480160E078F32166
S11321000140E1700020A0702809710840183100D6
S1132110FFF725FD2278E0211140020092B2120A55
S1132120D206D20E0A4322706070E0780C2101437B
S1132130E17070BD00B502791206FCD5C17100BD15
S113214038B504000D00274884420AD0264884424A
S113215007D02648844204D082214900244800F054
S113216077FAEDB2002D04D1E0784006400EE0701D
S113217036E0EDB2012D04D1E078BF210140E170D9
S11321802EE0EDB2022D04D1E078DF210140E170B0
S113219026E0EDB2032D04D1E078EF210140E17097
S11321A01EE0EDB2042D04D1A079F7210140A17104
S11321B016E0EDB2052D04D1A079FB210140A171F7
S11321C00EE0EDB2062D04D1A079FD210140A171EC
S11321D006E0EDB2072D03D1A079FD210140A171E4
S11321E031BD000000A0064000B0064000C006401B
S11321F0FC610000010000204879000209790843CD
S113220080B2704710B50C000021FFF7F3FF010006
S11322100120A0400840C0B210BD00000C80044062
S113222030B585B004000D002900200000F066FBE5
S11322300090200000F06EF8029002A9684600F0B9
S113224066FB00280AD1684600F06BFB00F06BFBCC
S113225002002900200000F06CFB00E00120C0B265
S113226000280CD00020019001AA290003A800F046
S11322706AFB02000099200000F06AFB00906846A7
S113228000F063FC001D05B030BD80B500F061FCBA
S113229002BD00B50A6803689A4201D20800FFE74C
S11322A000BD000012420FD0814202D2531898425E
S11322B003D310B5FDF784FF08BD80185B1E1978A1
S11322C0401E0170521EF9D1704730B583B004002E
S11322D00D002900200000F011FB0090200000F008
S11322E019F8019001A9684600F011FB00280BD1F0
S11322F0684600F016FB00F016FB020029002000DF
S113230000F017FB002803D0200000F003F800E0E1
S113231000983EBD80B54168684600F031FC006815
S113232002BD80B500F0F3FA0100C907C90F01200E
S11323304840C0B202BD80B500F02AFC02BD0000D6
S113234080B500F066F802BD80B500F083F802BDE8
S113235080B537480078002809D101203449087035
S11323603448FDF7ADFE344A3449FDF7B8FE01BDEB
S11323700121C006C00E814031480160704701212F
S1132380C006C00E81402F48016070472E48006887
S1132390012188432C49086070472C49C0B210229F
S11323A042438918896801229143284AC0B2102304
S11323B058431018816070472449C0B21022424328
S11323C08918896802229143204AC0B210235843D5
S11323D01018816070471D49C0B210224243891809
S11323E0896804229143194AC0B210235843101833
S11323F0816070471549C0B2102242438918C968E8
S113240001220A431149C0B2102358430818C2607C
S1132410704710B504002000FFF78DFF0C482060C2
S1132420002060600020A060200010BD00000000BB
S1132430BE020020EC000020B0020020E36900008E
S113244000E100E080E100E000700340007103401F
S11324505C66000010B50400200000F0DDFB2000E5
S113246010BD704710B50400A0680100491CA160AC
S11324700A2808D10020A06020002168C968884784
S11324806068401C606010BD80B500F015F802BDA6
S113249080B500F027F802BD80B50D48007800280B
S11324A009D101200A4908700A48FDF709FE0A4AC1
S11324B00A49FDF714FE01BD10B504002000FFF722
S11324C03AFF0748206000206060200010BD000033
S11324D0BE020020EC000020B0020020E3690000EE
S11324E04466000010B50400200000F095FB2000B5
S11324F010BD704710B5040020002168C9688847E2
S11325006068401C606010BD30B40468E023234060
S11325101D00C90018240C4053075B0F23432B43B1
S1132520DBB2036030BC7047F8B504000E0017003E
S11325304048844209D04048844206D03F488442FF
S113254003D074213E4800F083F83A48844207D10E
S113255002253C480068202101433A48016011E00B
S11325603548844207D1022536480068402101439A
S11325703448016006E006253248006880210143A2
S113258030480160002020602F48A060F6B2022E7F
S113259004D1206820210143216013E0F6B2032E08
S11325A010D12648844203D09221254800F050F8E7
S11325B0606D05210143616524486066206820211F
S11325C088432060FFB2012F17D10020C0B2EDB2C2
S11325D0A8422DD22821C0B208224243A218D160B9
S11325E0C0B264214143FA2292008918C0B2082281
S11325F04243A2181161401CE8E7FFB2022F17D131
S1132600002011E02421C0B208224243A218D16064
S1132610C0B264214143FA2292008918C0B2082250
S11326204243A2181161401CC0B2EDB2A842E9D3E2
S1132630F1BD0000008003400090034000A003406F
S11326409C6100000C8004401F4E000033333300B3
S113265080B50A000100064800F02CFD054800E0A2
S1132660401E0028FCD103480028F7D0401EFBE799
S113267000630000A08601000121C006C00E814055
S11326807C4801607047016840220A430260704739
S1132690016820220A4302607047416840220A43CD
S11326A042607047416820220A4342607047416893
S11326B010220A4342607047816880220A43826084
S11326C07047816810220A4382607047C1684022C3
S11326D00A43C2607047C16820220A43C26070473F
S11326E0006980B27047006880210840704738B59F
S11326F004000D006048844206D1604800688021CF
S1132700890501435D4801602979200000F09FF8A4
S11327106979200000F087F8A979200000F08DF88D
S1132720E979200000F09CF86888A061288880B2CC
S1132730C0080100C907C90F002902D02000FFF713
S1132740B1FF288880B200090100C907C90F002918
S113275002D02000FFF7ABFF288880B240080100B8
S1132760C907C90F002902D02000FFF791FF28886C
S113277080B2000A0100C907C90F002902D0200055
S1132780FFF7A9FF288880B2C0090100C907C90F53
S1132790002902D02000FFF799FF288880B2800822
S11327A00100C907C90F002902D02000FFF775FFF7
S11327B028780100C907C90F002905D02000FFF7B8
S11327C062FF0F20FFF758FF288880B280090100BC
S11327D0C907C90F002902D02000FFF772FF28881B
S11327E080B240090100C907C90F002902D02000A6
S11327F0FFF762FF31BD10B50400C9B2200000F03C
S113280009F82000FFF76FFF0028FAD02000FFF737
S113281067FF10BD02681F239A43C9B2C906C90ED7
S1132820114301607047826860239A43C9B2490129
S113283060230B4013438360704782680C239A43E0
S1132840C9B289000C230B4013438360704782682C
S113285003239A43C9B28907890F114381607047E2
S1132860C26807239A43C9B24907490F1143C1609B
S11328707047000000E100E000B003400C80044019
S113288010B582B004006946200000F025FC200049
S113289016BD80B50800002100F022FC02BD70477F
S11328A080B50800110000F021FC01BD001D704737
S11328B0704780B5012000F027FC01BD70B40A7890
S11328C0002A08D114E05B1C1E78A6420AD001E05D
S11328D0002C0CD0401C04789442F9D1002806D076
S11328E003000D006D1C2C78002CECD100E00020BE
S11328F070BC704780B500F011FC02BD80B500F0DB
S113290019FC0100684600F03BF9006802BD00B5FF
S113291000680968884201D1012000E00020C0B2AB
S113292000BD0068704780B500F029FC00F029FC68
S113293002BD00B508681168884201DA012000E090
S11329400020C0B200BD0968016011684160704791
S113295072B587B004001500684600F013FC20002F
S113296000F013FC002806D12B006268012120002E
S113297000F00DFCE7E0200000F03EFD039003A909
S113298007A8FFF7C4FF00284CD12000FFF7C2FCC2
S1132990029002A907A8FFF7BAFF00285CD107A894
S11329A0FFF7BFFFFFF7BFFF0600280000F0E9FBB9
S11329B0320001002000FFF7BCFF002867D1280087
S11329C000F0DFFB060007A8FFF7ABFFFFF7ABFF44
S11329D0320001002000FFF7ACFF002800D1ACE07A
S11329E0079800902000FFF795FC0190684600F0DE
S11329F00CFD01A9FFF78BFF00287BD16846FFF788
S1132A0090FFFFF790FF0600280000F0BAFB3200A9
S1132A1001002000FFF78DFF0100C907C90F012045
S1132A20484068E007A8FFF77CFFFFF77CFF06003B
S1132A30280000F0A6FB320001002000FFF779FF18
S1132A4000287AD007A8FFF76CFF02002B000121B1
S1132A50200000F09CFB76E0280000F092FB0600CA
S1132A60200000F0D9FC0068FFF75DFF3200010090
S1132A702000FFF75EFF00285FD0200000F0CCFCB0
S1132A802B0002680021200000F081FB5BE0079826
S1132A900090280000F075FB0600684600F0C1FCB9
S1132AA0FFF73FFFFFF73FFF320001002000FFF771
S1132AB040FF002883D06846FFF733FF00F0B8FCDE
S1132AC0006800F0B7FC0078002809D06846FFF7DA
S1132AD028FF2B0002000021200000F058FB32E008
S1132AE007A8FFF71EFF2B0002000121200000F0C1
S1132AF04EFB28E00020C0B200281ED107A8FFF733
S1132B0010FF00F095FC006800F094FC00780028A9
S1132B1009D007A8FFF705FF2B00020000212000C1
S1132B2000F035FB0FE06846FFF7FBFE2B000200C8
S1132B300121200000F02BFB05E02A00210004A85D
S1132B4000F07AFC049808B070BD80B500F0FDFC7C
S1132B5002BD10B584B004000A00210001A800F0F1
S1132B60F9FC002000906A460299019800F0F6FCF6
S1132B70029A0199200000F0FEFC009804B010BDF8
S1132B8010B504002000FDF75BFB200010BD000021
S1132B9010B584B004001D48206072B61C48FDF7CF
S1132BA053FB002828D064201A4801906846007816
S1132BB0012101436846017068460078FD21014007
S1132BC068460170684640780221014368464170B6
S1132BD068464078FB210140684641706846407869
S1132BE001210143684641706946002000F041FD1F
S1132BF0162040B2FFF7BCFB029402A90448FDF77B
S1132C002CFB62B6200004B010BD00BFA867000012
S1132C10EC000020CF07000080B500F08BFD02BD62
S1132C2010B50C001168012902D0022904D009E072
S1132C30C0B25168884705E0916808709068401CEC
S1132C409060FFE72068401C206010BDF0B51C00B8
S1132C5000260500002028706D1C002A1CD00F6877
S1132C60002F09D130202870761C3000F0BD30329E
S1132C700F002A706D1C761C002FF6D0380021003E
S1132C80FEF76AFF0100080060433A1A002AEED5F5
S1132C90D04302003132EBE70F68002F08D1302017
S1132CA02870761CE1E73731070029706D1C761C0B
S1132CB0002FDAD038002100FEF751FF01006143F4
S1132CC0791A0A29EFD23031EEE7F8B50E00150073
S1132CD01F00040005E03A0029003020FFF7A0FFA0
S1132CE0641CB442F7DBF1BDF8B50E0015001F00FB
S1132CF0040005E03A0029002020FFF791FF641C3E
S1132D00B442F7DBF1BDF1B590B01400002000909F
S1132D100D0004E0109A6946FFF782FF6D1C2878C5
S1132D20002800D1C3E1252811D00A2804D0109A24
S1132D306946FFF775FF09E0109A69460D20FFF711
S1132D406FFF109A69460A20FFF76AFFE6E700273B
S1132D50002102E038000127074300291FD16D1C20
S1132D60287820280CD0232812D02B2804D02D28F2
S1132D70F0D0302808D00FE0380002270743ECE7F2
S1132D80380004270743E8E7380008270743E4E747
S1132D90380010270743E0E76D1E0121DDE700201E
S1132DA00290002105E0029A0A235A431018303891
S1132DB00290002908D16D1C28780200303A092AB3
S1132DC0F1D96D1E0121F4E76D1C28782E280BD152
S1132DD00021FFE7002908D16D1C28783038092824
S1132DE0F8D96D1E0121F5E76D1E6D1C28784C285D
S1132DF006D0682802D06C2801D002E002E001E08D
S1132E0000E06D1E6D1C28780100582971D06229DC
S1132E1000D1CAE0632900D113E1642913D06929E0
S1132E2011D06E2900D13DE16F2900D1B2E07029A3
S1132E3000D1C5E0732900D10BE1752900D1CAE0A6
S1132E40782956D066E72068241D06900A230122BB
S1132E5006A907A8FFF7FAFE060007A8801905903F
S1132E600698002803D52D200190761C0DE0B807A4
S1132E7003D52B200190761C07E0780703D520208A
S1132E800190761C01E00020019000200490380796
S1132E9011D50198002804D0109A69460198FFF7CB
S1132EA0BFFE01200490109B6A4602993000FFF790
S1132EB00CFF029E11E0F8070FD4109B6A4602999A
S1132EC03000FFF711FF0198002804D0109A6946DA
S1132ED00198FFF7A5FE012004900498002807D16B
S1132EE00198002804D0109A69460198FFF798FECB
S1132EF09AE02068241D03901023002203A907A848
S1132F00FFF7A4FE060007A880190590002004908E
S1132F10380715D5F8060BD5109A69463020FFF707
S1132F207FFE109A69467820FFF77AFE012004900C
S1132F30109B6A4602993000FFF7C7FE029E18E014
S1132F40F80716D4F80600D5B61C109B6A460299F9
S1132F503000FFF7C9FEF8060BD5109A69463020F9
S1132F60FFF75EFE109A69467820FFF759FE0120AC
S1132F700490F8060DD5049800280AD1109A6946E1
S1132F803020FFF74DFE109A69467820FFF748FE7F
S1132F90B61C49E02068241D03900823002203A9DD
S1132FA007A8FFF753FE06001FE02068241D0390C6
S1132FB00223002203A907A8FFF748FE060014E035
S1132FC02068241D03901023002203A907A8FFF7FB
S1132FD03DFE060009E02068241D03900A23002218
S1132FE003A907A8FFF732FE060007A88019059079
S1132FF0380707D5109B6A4602993000FFF765FE33
S1133000029E11E0F8070FD4109B6A460299300023
S1133010FFF76AFE08E0109A694605980078FFF702
S1133020FFFD0598401E0590059800780028F2D110
S1133030F80705D5109B6A4602993000FFF754FE45
S11330406CE62068241DC0B2109A6946FFF7E8FDBB
S113305064E62068241D01900198002821D001987D
S1133060FDF7DCF80600F8070FD4109B6A460299B6
S11330703000FFF739FE08E0109A6946019800789D
S1133080FFF7CEFD0198401C0190019800780028BC
S1133090F2D1F80705D5109B6A4602993000FFF774
S11330A023FE3BE62068241D0099016036E6009863
S11330B011B0F0BD0EB400B584B0012100910549F2
S11330C0019105AA01006846FFF71DFE049908B0A6
S11330D008470000451C000080B5FDF7CAF802BD92
S11330E080B50C214843FDF70FF802BD10B50C0064
S11330F001000420FDF7C6F8002802D02168016011
S113310000E0002010BD000080B5C046C046024A61
S113311011001820ABBEFBE72600020010B582B0F8
S113312004006A462000FDF7AFF82000FDF7B0F870
S1133130200016BDF8B505000E002800FDF7C5F8FF
S113314004686F6803E0200000F072F9046820004E
S113315000F070F9007800280FD12000FFF7E3FB9E
S1133160010032002800FFF7E4FB0028EBD1270020
S1133170200000F023FB0468E9E73800F2BD0C30BE
S11331807047704700210160704780687047F0B550
S113319083B006000D0014001F00300000F00FFB88
S11331A0B168401E814202D3300000F00DFB0020C4
S11331B001900097736822007168300000F01CFBD6
S11331C00700B068401CB060706884420CD13000C5
S11331D0FDF77BF80760300000F029FB0760300042
S11331E000F01AF907601FE0EDB2002D0ED02000A8
S11331F000F0E4FA0760300000F019FB0068844234
S113320012D1300000F013FB07600DE0200000F045
S11332100FF90760300000F0FFF80068844203D122
S1133220300000F0F9F807603D001EE0280000F0CF
S113323003FB006800F002FB01210170200000F094
S1133240FDFA01210170280000F0F6FA006800F090
S1133250F3FA006800F0F2FA00210170280000F08F
S1133260EBFA006800F0E8FA0568280000F0E4FAD8
S1133270006800F0E3FA0078002800D0AEE02800EF
S113328000F0DAFA0400280000F0D6FA006800F032
S1133290D3FA006800F092FA2168006881423ED1B6
S11332A0280000F0C9FA006800F0C6FA006800F0CF
S11332B0BFF80468200000F0C1FA00780028B5D0F7
S11332C0280000F0B9FA006800F0B2F800688542FE
S11332D007D1280000F0B0FA05682900300000F09A
S11332E0AFFA280000F0A8FA006800F0A7FA01215C
S11332F00170280000F0A0FA006800F09DFA006850
S113330000F09CFA00210170280000F095FA006892
S113331000F092FA0168300000F0E7FAA5E728000F
S113332000F08AFA006800F087FA006800F046FAB4
S11333300468200000F082FA007800281FD12800D9
S113334000F07AFA006800F079FA01210170200097
S113335000F074FA01210170280000F06DFA006891
S113336000F06AFA006800F069FA00210170280090
S113337000F062FA006800F05FFA056875E728005B
S113338000F05AFA006800F019FA0068854207D183
S1133390280000F051FA05682900300000F0A5FA71
S11333A0280000F049FA006800F048FA0121017091
S11333B0280000F041FA006800F03EFA006800F0CE
S11333C03DFA00210170280000F036FA006800F090
S11333D033FA0168300000F033FA46E73000FCF7B6
S11333E074FF006800F02AFA012101703900684670
S11333F0FFF7C6FB0068FEBD80B500F018FA01684F
S11334006846FFF7BDFB006802BD10B5040020004C
S113341000F0C0FA200010BD80B5406800F008F844
S113342002BD10B50400200000F0E2FA200010BD37
S11334300830704715307047F1B58CB00E00170096
S11334403000FCF742FF046870680290012503E035
S1133450200000F0B3F904682000FFF7EBFF0078C8
S1133460002815D102942000FFF75DFA050038000A
S1133470FFF787FE2A0001003000FFF75AFA050023
S1133480EDB2002DE4D12000FFF7D2FF0468E3E79A
S1133490029901A8FFF774FBEDB2002D0CD03000A7
S11334A0FFF7AAFF059005A901A8FFF730FA002845
S11334B028D101A800F0D6FA3800FFF762FE040014
S11334C001A8FFF72EFAFFF72EFA220001003000C0
S11334D0FFF72FFA00282AD03B00029A2900C9B22C
S11334E03000FFF754FE049001206946887000AA5A
S11334F0921C04A90AA800F0BCFA03C80C9A03C2DF
S1133500083A20E03B00029A01213000FFF73FFE19
S1133510039001206946487000AA521C03A908A818
S113352000F0A7FA03C80C9A03C2083A0BE0002083
S1133530694608706A4601A906A800F09AFA03C809
S11335400C9A03C2083A0DB0F0BD80B50068FFF7CD
S113355016FE02BD80B500F091FA02BD31B50C0033
S11335601500684600F0FEFA03002A0021000098C6
S113357000F0F9FA31BD16B582B004002000FFF75F
S11335803BFF019001A902A8FFF7C1F9002808D068
S11335902000FEF7BFFE0090694603A8FFF7B7F9C5
S11335A000E00020C0B200280ED0200000F0EBFAAA
S11335B02000FFF721FF11E0002102A800F0FEFA2D
S11335C00100200000F000FB03A902A8FEF7A9FEF9
S11335D00028F1D10299200000F039FD04B010BD9B
S11335E00121C006C00E81404D4801607047012191
S11335F0C006C00E81404B48016070474A480068CD
S113360002218843484908607047474800680121FF
S113361001434548016070474449C0B21022424307
S11336208918896801220A434049C0B210235843CB
S11336300818826070473D49C0B21022424389187D
S1133640896802220A433949C0B210235843081832
S1133650826070473549C0B2102242438918896894
S113366004220A433149C0B2102358430818826027
S1133670704738B504000D002D480068022101434D
S11336802B48016028780100C907C90F002901D01F
S1133690FFF7BBFF2878C0B240080100C907C90F73
S11336A0002901D1FFF7AAFF69682000C0B200F029
S11336B031F86878C0B240080100C907C90F002971
S11336C00ED0E4B2002C03D01720FFF789FF02E0EC
S11336D01620FFF785FF2000C0B2FFF7ACFF02E021
S11336E01620FFF784FF6878C0B280080100C9077C
S11336F0C90F002903D02000C0B2FFF7ABFF6878E0
S11337000100C907C90F002903D02000C0B2FFF788
S113371083FF31BD054AC0B210235843115070478E
S113372000E100E080E100E000700340007103402C
S11337300C8004401CB504001E48206072B61E486C
S113374000F0B5FC009002E0684600F0BAFC1A48AC
S113375000F085FC019001A9684600F0B9FC00283E
S113376009D0684600F0BEFC0068A042ECD1009984
S1133770114800F0BBFC1048FCF766FD002815D08A
S1133780162040B2FEF7FBFD00210020FFF7C2FF28
S11337900020FEF702FE0020FEF70EFE0020FEF7DA
S11337A01AFE0020FEF726FEFEF7F0FD62B62000AA
S11337B016BD00BFA8670000EC000020704780B56C
S11337C0C01C00F011FD02BD00B58FB0094908A866
S11337D000F012FD0100684600F020FD684600F08C
S11337E029FD684600F02AFD08A800F02EFD0FB060
S11337F000BD00BF04680000F7B50E001F00089D5F
S11338000121401C00F02AFD040021001820FCF7CF
S113381039FD002808D00999019100953B00029ACE
S1133820310000F021FD00E000202000FEBD80B545
S11338304068FFF7C3FF02BD001D70471430704796
S1133840F8B507000C002000FFF7F2FD0568200022
S1133850FFF7EEFD06002800FFF7B0FF00683060B8
S11338602800FFF7ABFF0068FFF7E4FD00780028AD
S113387006D12800FFF7A2FF0068FFF7DDFF046010
S11338802800FFF7D9FF06002000FFF7D5FF0068E6
S113389030603800FCF719FD0068844204D1380018
S11338A0FCF713FD056017E02000FFF7C5FF006873
S11338B0FFF784FF0068844207D12000FFF7BCFFB4
S11338C00068FFF77BFF056006E02000FFF7B4FF08
S11338D00068FFF7ADFD05602800FFF76FFF046087
S11338E02000FFF7A9FF0560F1BDF8B507000C0043
S11338F02000FFF763FF05682000FFF75FFF060065
S11339002800FFF795FD006830602800FFF790FD60
S11339100068FFF78FFD0078002806D12800FFF724
S113392087FD0068FFF788FF04602800FFF784FF25
S113393006002000FFF780FF006830603800FCF7C5
S1133940C4FC0068844204D13800FCF7BEFC056066
S113395017E02000FFF770FF0068FFF769FD0068BB
S1133960844207D12000FFF767FF0068FFF760FD7E
S1133970056006E02000FFF75FFF0068FFF71EFF09
S113398005602800FFF754FD04602000FFF754FF92
S11339900560F1BD38B504002068FFF74BFD0078E1
S11339A0002824D12068FFF743FD0068FFF742FD9B
S11339B00078002807D12068FFF73AFD006800F07E
S11339C065FC206013E000E025602068FFF734FF09
S11339D005682800FFF72EFD0078002806D128008E
S11339E0FFF726FD216800688142EDD0256031BDD6
S11339F038B504002068FFF71DFD0078002805D0C5
S1133A002068FFF715FD006820602AE02068FFF7B2
S1133A10D5FE0068FFF70EFD0078002807D1206866
S1133A20FFF7CCFE006800F043FC206019E000E0E2
S1133A3025602068FFF700FF05682800FFF7FAFCFF
S1133A400078002806D12800FFF7B8FE2168006836
S1133A508142EDD02068FFF7EDFC0078002800D10A
S1133A60256031BD10B504002000FFF7DAFC20000A
S1133A7010BD09680160117801717047F1B586B015
S1133A800D0016002800FCF720FC0468686800900C
S1133A906F6803E02000FFF7CBFC04682000FFF709
S1133AA0C9FC0078002820D12000FEF73CFF01006B
S1133AB032002800FEF73DFF0028EBD13800FFF765
S1133AC0B9FC007800280AD02000FEF72CFF020081
S1133AD031002800FEF72DFF002800D027000094B5
S1133AE02000FFF76BFE0468D8E73800FFF7A2FC5C
S1133AF00078002804D02800FCF7E7FB046809E0FC
S1133B003800FFF75BFE046804E027002000FFF79D
S1133B1055FE04682000FFF78DFC007800280ED1C4
S1133B202000FEF700FF020031002800FEF701FF2D
S1133B300028EAD12000FFF77BFC0468EAE700993B
S1133B4001A8FFF71DF8390002A8FFF719F80200D1
S1133B5001A903A800F0BEFB03C8069A03C2083AF1
S1133B6007B0F0BD704713B5140005E02068401C91
S1133B702060684600F0B3FB01A96846FEF7D1FB5C
S1133B800028F3D113BD10B504002000FCF79DFB01
S1133B900168200000F0AAFB2000FCF796FB616896
S1133BA001600020A0602000FFF741FE6168016011
S1133BB02000FFF731FC6168016010BD10B5046896
S1133BC0FFF723FC200010BDF2B592B0070012A845
S1133BD0FEF7A7FEFFF72EFC0078002810D013494B
S1133BE00AA800F009FB010002A800F0A3FB02A848
S1133BF000F020FB02A800F0A9FB0AA800F025FBB6
S1133C0012A8FEF78EFE009012A8FFF7FEFB009E9E
S1133C103000FFF7D3FD0068FFF70CFC00780028A4
S1133C2006D03000FFF704FC046817E05864000075
S1133C303000FFF7FDFB0068FFF7FCFB007800286D
S1133C4004D03000FFF7BAFD046807E012A8FEF7BD
S1133C5068FE06003000FFF7EBFB0468009886421C
S1133C6059D10098FFF7E8FD05682000FFF7E2FB53
S1133C700078002803D12000FFF7DEFD056038003E
S1133C80FCF723FB00680099884204D13800FCF754
S1133C901CFB04600FE02800FFF790FD006800990A
S1133CA0884204D12800FFF789FD046003E028005E
S1133CB0FFF7BEFB04603800FFF7B9FD0068009908
S1133CC088420FD13800FFF7B2FD06002000FFF74D
S1133CD0B1FB0078002801D0280002E0200000F0A9
S1133CE0D5FA30603800FFF797FB006800998842E6
S1133CF000D084E03800FFF78FFB06002000FFF7B8
S1133D0099FB0078002801D0280002E0200000F090
S1133D10CFFA306073E00098FFF750FD0068FFF7BA
S1133D208BFD06603000FFF749FD05000098FFF7A2
S1133D3045FD006828600098FFF77AFB006886421A
S1133D4001D1350022E03000FFF776FD0568200040
S1133D50FFF770FB0078002803D12000FFF76CFD0B
S1133D6005602800FFF72AFD04603000FFF760FBC0
S1133D7001900098FFF75CFB0068019908600098C7
S1133D80FFF756FB0068FFF757FD06603800FCF7A5
S1133D909CFA00680099884204D13800FCF795FA2F
S1133DA0066018E00098FFF747FD0068FFF706FD7E
S1133DB000680099884207D10098FFF73DFD00682C
S1133DC0FFF7FCFC066006E00098FFF735FD00688D
S1133DD0FFF72EFB06603000FFF72EFD01900098E0
S1133DE0FFF72AFD0068019908600098FFF726FD97
S1133DF001903000FFF722FD019900F0AEFA00981F
S1133E00FFF71CFD0078012800D009E104E02C0034
S1133E102000FFF711FD05683800FCF756FA00682A
S1133E20844200D1F7E02000FFF708FD0078012864
S1133E3000D0F0E02800FFF7C1FC0068844274D190
S1133E402800FFF7F5FA06683000FFF7F7FC007862
S1133E50002811D13000FFF7F1FC01210170280086
S1133E60FFF7ECFC0021017029003800FFF7E8FCA3
S1133E702800FFF7DDFA06683000FFF7DBFA007868
S1133E800028C4D13000FFF799FC0068FFF7D6FC86
S1133E90007801280FD13000FFF7CAFA0068FFF755
S1133EA0CDFC0078012806D13000FFF7C7FC0021C3
S1133EB001702C00ACE73000FFF7BAFA0068FFF796
S1133EC0BDFC0078012814D13000FFF777FC0068AE
S1133ED0FFF7B4FC012101703000FFF7AFFC0021B3
S1133EE0017031003800FFF700FD2800FFF7A0FA49
S1133EF006683000FFF7A2FC01902800FFF79EFC43
S1133F000078019908702800FFF798FC01210170DE
S1133F103000FFF78DFA0068FFF790FC0121017073
S1133F2029003800FFF78CFC75E02800FFF746FCF9
S1133F3006683000FFF782FC0078002811D13000B9
S1133F40FFF77CFC012101702800FFF777FC0021BA
S1133F50017029003800FFF7C8FC2800FFF72EFC89
S1133F6006683000FFF766FA0078002801D02C00BC
S1133F704EE73000FFF75CFA0068FFF75FFC00785B
S1133F8001280FD13000FFF719FC0068FFF756FC39
S1133F900078012806D13000FFF750FC00210170A1
S1133FA02C0035E73000FFF709FC0068FFF746FCFA
S1133FB00078012814D13000FFF73AFA0068FFF7BF
S1133FC03DFC012101703000FFF738FC0021017035
S1133FD031003800FFF734FC2800FFF7EFFB0668D8
S1133FE03000FFF72BFC01902800FFF727FC007836
S1133FF0019908702800FFF721FC012101703000AD
S1134000FFF7DCFB0068FFF719FC012101702900B0
S11340103800FFF76AFC2000FFF710FC0121017053
S113402000993800401C00F0A0F9012200993800E2
S1134030401C00F09FF9B868002802D0B868401E00
S1134040B8601299380000F002F813B0F0BD80B5E2
S11340506846FEF795FD006802BD0160704780B5B3
S11340604168684600F08BF9006802BD73B506002C
S1134070150001A800F08AF904002000FEF716FCE0
S11340802B0002682100300000F082F905000121B4
S1134090300000F0A5F92000FEF708FC05602800B8
S11340A0FEF704FC0068FEF7FAFB056073BD80B5FB
S11340B04068FEF7F4FB0168684600F060F90068A8
S11340C002BD10B50400200000F0AEF9200010BDC0
S11340D080B500F0B2F90100C907C90F01204840BA
S11340E0C0B202BD80B500F0B2F902BD73B50400E0
S11340F0002101A800F0B0F90090684600F046F9EC
S113410005006068854223D02800FEF7CFFB0068D5
S1134110FEF7C5FB06002800FEF7C1FB006830600F
S11341202800FEF7BCFB0068FEF7C0FB0600280071
S1134130FEF7BCFB006830602900200000F092F913
S113414001222900200000F092F9A068401EA0601E
S11341500199200000F090F976BD80B500F092F945
S113416002BD10B582B004006A46200000F08BF94D
S1134170200016BD70B584B0050001212800401C44
S113418000F06CF806000024002002903000FFF7D5
S113419015FB02AA01002800801C00F078F9641CB9
S11341A0002001903000FFF747FB010001AA28001E
S11341B0801C00F06CF9641C002000903000FFF7B4
S11341C037F96A460100AD1C280000F060F93000A0
S11341D0FFF734FB012101703000FFF72BF90021B8
S11341E00170300004B070BD00B50248002800D151
S11341F0012000BDFFFFFF1F38B504000D00694614
S1134200200000F04AF900220021200000F049F9C2
S11342102900200000F064F9200032BD10B504002C
S1134220200000F069F902482060200010BD00BFA2
S1134230E467000080B5FEF73CFB01BD10B5040047
S1134240200000F05DF9200010BD10B5040000222C
S11342500121200000F025F9200010BD80B50800E0
S1134260002100F051F902BD10B40400019821604E
S11342706260A36003C822000C3203C2083A0298A9
S1134280207500206075200010BC704710B5040034
S113429003E02000FFF792FA04682000FFF78EFA8B
S11342A00068FFF7C7F800780028F2D0200010BD9E
S11342B010B5040003E02000FFF7BAF804682000FA
S11342C0FFF7B6F80068FFF7B5F800780028F2D0D9
S11342D0200010BD0968016011684160704710B585
S11342E004002000FFF791F8200010BD70B5050010
S11342F00E00340016E02000FFF79AF80168280049
S1134300FFF7F4FF2000FFF759FA04683100280092
S1134310401C00F02AF8012231002800401C00F063
S113432029F826002000FFF785F800780028E2D05D
S113433070BD000010B50400200000F0DDF8024854
S11343402060200010BD00BFF867000010B5040015
S1134350200000F0D5F8200010BD00B5884203D03D
S113436002780B7803700A7000BD80B5080000F075
S1134370D1F801BD80B50800FDF782FE01BD10B57E
S11343800400200000F0C7F8200010BD006870474A
S1134390F7B505001F0001212800FEF77AFA060090
S11343A000243000FEF77BFA01AA01002800401C1B
S11343B0FEF776FA641C3000FEF778FA010002AAD0
S11343C02800401CFEF76CFA641C300000F0A7F8CB
S11343D03A000100AD1C280000F0A3F83000FEBD37
S11343E030B58FB004000D00200000F0A0F8A168E3
S11343F0401AA84210D20B4908A8FFF7FDFE01009D
S11344006846FFF70BFF6846FFF714FF6846FFF79F
S113441015FF08A8FFF719FFA0684019A0600FB0A6
S113442030BD00BFB467000010B504002068FEF77B
S113443036FA00682060200010BD00B500680968E5
S1134440884201D1012000E00020C0B200BD80B547
S1134450006800F064F802BD10B50468FFF7E4FFDB
S1134460200010BD80B5080000F066F801BD80B5DD
S11344700800FDF705FE01BD80B56846FFF77FFF24
S1134480006802BD704780B500F057F802BD80B5E2
S11344900800110000F05AF801BD80B500F063F87F
S11344A002BD70B504001500C9B2002911D0A0697D
S11344B010280ED36668002D05D02A003100200094
S11344C0001D00F051F8A269521C3100200000F0D8
S11344D052F80F20A0612900200000F051F870BDAF
S11344E038B504000D00280000F05AF80200290035
S11344F0200000F059F832BD80B500F07DF802BD0F
S113450080B500F08BF802BD80B518214843FBF755
S1134510FBFD02BD704780B500F090F802BD083085
S1134520704780B50800110000F08AF801BD80B51D
S1134530801C00F093F802BD704710B582B00400EF
S11345406A46200000F092F8200016BD10B50C0059
S113455001000420FBF796FE002802D021680160C8
S113456000E0002010BD704710B504002000FBF7E8
S113457027FE200010BD80B50800FDF781FD01BDB8
S113458038B505000C00002069460870280000F0CA
S113459071F86C6169466A69801800F073F831BD7E
S11345A080B5FBF73BFE02BD70B505000C0016009C
S11345B02100280000F069F8002809D0280000F044
S11345C059F83300221A2900280000F073F812E089
S11345D000223100280000F0A9F800280AD02800A1
S11345E000F048F832002100FFF7BEFF3100280038
S11345F0FFF7C6FF280070BD38B505000C00280081
S113460000F0C6F80448286021002800001D00F0CE
S1134610C5F8280032BD00BFD067000010B5040003
S1134620054820602000001DFFF70FFE200000F069
S1134630B2F8200010BD00BFD067000001607047D1
S113464010B50C0001000420FBF71CFE002802D06A
S11346502168016000E0002010BD000000B50248A0
S1134660002800D1012000BDFFFFFF3F80B500F00E
S1134670ADF802BD00B58169102901D3406800E09E
S1134680001D00BD09780170704738B505000C00A5
S1134690002C0BD02800FFF7EDFF844206D328003E
S11346A0FFF7E8FF69694018844201D3002000E065
S11346B0012032BDF2B5060017001D00009800F07D
S11346C090F8B84202D2300000F09CF8009800F054
S11346D088F8C41BA54200D22C00009886420BD156
S11346E0114802683919300000F0B6F83A00002188
S11346F0300000F0B1F815E000222100300000F095
S113470015F800280ED0009800F0CEF8050030000F
S1134710FFF7B0FF2200E919FFF726FF2100300060
S1134720FFF72EFF3000F2BD4C6B000070B50500A2
S11347300C001600280000F0BFF8A04202D22800A6
S113474000F052F8A869A04205D26A692100280045
S113475000F0BBF815E0F6B2002E0CD0102C0AD2F3
S11347606869844201D2220000E06A6901212800BC
S1134770FFF797FE05E0002C03D100212800FFF786
S1134780FFFE002C01D0012000E00020C0B270BD6B
S113479001490160704770473468000038B504006F
S11347A00D0069462000FFF778FE0022002120005A
S11347B0FFF777FE04480368002229002000FFF772
S11347C079FF200032BD00BF4C6B000010B582B0F1
S11347D00400087800900099200000F0B4F820004C
S11347E016BD40697047000000B58FB010A108A83D
S11347F0FFF702FD01006846FFF710FDFFF71AFD01
S11348000CE0000000B58FB00DA108A8FFF7F4FC80
S113481001006846FFF78EFDFFF70CFD6846FFF7C1
S1134820FDFE0022012108A8FFF73BFE0FB000BDEA
S1134830737472696E6720746F6F206C6F6E67009B
S1134840696E76616C696420737472696E67207036
S11348506F736974696F6E00F8B504000F00160079
S11348606069B84202D22000FFF7CCFF6069C01B28
S1134870B04201D26069C61B002E13D02000FFF79E
S1134880F9FE05002000FFF7F5FE6169C91B8A1BCC
S1134890E9198919C01900F05AF86069811B2000D0
S11348A0FFF76EFE2000F2BD00B58169102901D327
S11348B0406800E0001D00BD80B500F04FF80228FC
S11348C001D2012000E0401E02BDF8B505000E0033
S11348D017000F2434432800FFF7EEFFA04201D253
S11348E0340014E020000321FDF739F9A9694908CF
S11348F088420CD22800FFF7DFFFA9694908401A53
S1134900A969884203D3A869A96949084418210000
S1134910491C280000F029F80600002F07D02800C1
S1134920FFF7A8FE01003A003000FFF71DFE002249
S113493001212800FFF7B5FD6E60AC613900280045
S1134940FFF71EFEF1BD80B500F015F802BD10B5ED
S113495004002000FDF7A6FC200010BD00B50020D7
S1134960C043002800D1012000BD80B5080000210B
S113497000F007F802BD02B469460A78027001B07B
S1134980704780B5FBF7C0FB02BD0000F2B592B0E2
S1134990070012A8FBF79EFCFBF79EFC007800289A
S11349A010D013490AA8FFF727FC010002A8FFF75B
S11349B0C1FC02A8FFF73EFC02A8FFF7C7FC0AA847
S11349C0FFF743FC12A8FBF785FC009012A8FBF745
S11349D085FC009E3000FBF788FC0068FBF77CFC3C
S11349E00078002806D03000FBF780FC046817E04C
S11349F0206400003000FBF779FC0068FBF76CFCD6
S1134A000078002804D03000FBF76FFC046807E04E
S1134A1012A8FBF75FFC06003000FBF767FC046894
S1134A200098864259D10098FBF762FC0568200083
S1134A30FBF752FC0078002803D12000FBF758FC58
S1134A4005603800FBF756FC00680099884204D1E1
S1134A503800FBF74FFC04600FE02800FBF745FC2F
S1134A6000680099884204D12800FBF73EFC0460EA
S1134A7003E02800FBF73AFC04603800FBF73FFC36
S1134A800068009988420FD13800FBF738FC060013
S1134A902000FBF721FC0078002801D0280002E068
S1134AA02000FBF731FC30603800FBF73FFC006866
S1134AB00099884200D084E03800FBF737FC0600F8
S1134AC02000FBF709FC0078002801D0280002E050
S1134AD0200000F09EF9306073E00098FBF705FCBD
S1134AE00068FBF705FC06603000FBF7FEFB0500E1
S1134AF00098FBF7FAFB006828600098FBF7F6FBC8
S1134B000068864201D1350022E03000FBF7F0FB5B
S1134B1005682000FBF7E0FB0078002803D12000A3
S1134B20FBF7E6FB05602800FBF7DFFB04603000C1
S1134B30FBF7DCFB01900098FBF7D8FB00680199B8
S1134B4008600098FBF7D2FB0068FBF7D1FB066016
S1134B503800FBF7CFFB00680099884204D1380085
S1134B60FBF7C8FB066018E00098FBF7C1FB006880
S1134B70FBF7BBFB00680099884207D10098FBF75C
S1134B80B7FB0068FBF7B1FB066006E00098FBF793
S1134B90AFFB0068FBF7AAFB06603000FBF7A8FB3D
S1134BA001900098FBF7A4FB006801990860009845
S1134BB000F041F90190300000F03DF90199FFF750
S1134BC0CCFB009800F037F90078012800D009E107
S1134BD004E02C002000FBF78BFB05683800FBF792
S1134BE089FB0068844200D1F7E0200000F023F93B
S1134BF00078012800D0F0E02800FBF776FB00687D
S1134C00844274D12800FBF771FB0668300000F081
S1134C1012F90078002811D1300000F00CF90121BC
S1134C200170280000F007F9002101702900380004
S1134C3000F003F92800FBF759FB06683000FBF786
S1134C404BFB00780028C4D13000FBF74EFB006812
S1134C5000F0F1F8007801280FD13000FBF746FB93
S1134C60006800F0E8F80078012806D1300000F070
S1134C70E2F8002101702C00ACE73000FBF736FBB2
S1134C80006800F0D8F80078012814D13000FBF750
S1134C902CFB006800F0CFF801210170300000F017
S1134CA0CAF8002101703100380000F01BF9280017
S1134CB0FBF71CFB0668300000F0BDF801902800EB
S1134CC000F0B9F8007801990870280000F0B3F8F2
S1134CD0012101703000FBF709FB006800F0ABF81C
S1134CE0012101702900380000F0A7F875E02800C0
S1134CF0FBF7FBFA0668300000F09DF80078002806
S1134D0011D1300000F097F801210170280000F063
S1134D1092F8002101702900380000F0E3F828001F
S1134D20FBF7E3FA06683000FBF7D6FA00780028B0
S1134D3001D02C004EE73000FBF7D8FA006800F0F1
S1134D407AF8007801280FD13000FBF7CEFA00681A
S1134D5000F071F80078012806D1300000F06BF8FB
S1134D60002101702C0035E73000FBF7BEFA006823
S1134D7000F061F80078012814D13000FBF7B6FA8E
S1134D80006800F058F801210170300000F053F879
S1134D90002101703100380000F04FF82800FBF7C3
S1134DA0A4FA0668300000F046F80190280000F0EC
S1134DB042F8007801990870280000F03CF80121BD
S1134DC001703000FBF791FA006800F034F801211B
S1134DD001702900380000F085F8200000F02BF85D
S1134DE00121017000993800401C00F0D0F8012224
S1134DF000993800401C00F0CFF8B868002802D0B1
S1134E00B868401EB8601299380000F0CAF813B0B0
S1134E10F0BD10B5040003E02000FBF767FA046856
S1134E202000FBF763FA0068FBF756FA00780028C5
S1134E30F2D0200010BD10307047F8B507000C0008
S1134E402000FBF753FA05682000FBF74FFA060031
S1134E502800FBF74AFA006830602800FBF745FA9F
S1134E600068FBF739FA0078002806D12800FBF720
S1134E703CFA0068FBF73CFA04602800FBF738FAB8
S1134E8006002000FBF734FA006830603800FBF7B6
S1134E9031FA0068844204D13800FBF72BFA05602C
S1134EA017E02000FBF724FA0068FBF71EFA0068FD
S1134EB0844207D12000FBF71BFA0068FBF715FAC0
S1134EC0056006E02000FBF713FA0068FBF70EFA12
S1134ED005602800FBF709FA04602000FBF708FAD4
S1134EE00560F1BDF8B507000C002000FBF7FDF9E3
S1134EF005682000FBF7F9F906002800FBF7F6F92E
S1134F00006830602800FBF7F1F90068FBF7E4F96A
S1134F100078002806D12800FBF7E8F90068FBF7C1
S1134F20E7F904602800FBF7E3F906002000FBF72B
S1134F30DFF9006830603800FBF7DCF90068844270
S1134F4004D13800FBF7D6F9056017E02000FBF721
S1134F50CFF90068FBF7CAF90068844207D1200042
S1134F60FBF7C6F90068FBF7C1F9056006E020000D
S1134F70FBF7BEF90068FBF7B8F905602800FBF7FA
S1134F80B5F904602000FBF7B3F90560F1BD80B505
S1134F90080000F03AF801BD80B50800FDF770F88C
S1134FA001BD80B5684600F031F8006802BD38B52F
S1134FB004002068FBF790F90078002824D12068C9
S1134FC0FBF794F90068FBF787F90078002807D10C
S1134FD02068FBF78BF90068FBF796F9206013E073
S1134FE000E025602068FBF783F905682800FBF7DB
S1134FF073F90078002806D12800FBF777F92168B7
S113500000688142EDD0256031BD704710B50400C1
S1135010200000F002F8200010BD80B500F001F877
S113502002BD01607047000010B504002000083084
S113503000F028F9606800F0B1F849480078FB21D5
S113504001404748017000BF00BF47480078C006D0
S1135050FBD4454800784006FBD542480078C0B2EE
S11350604009012807D03F480078C006C00E20211F
S113507001433C4801703C480078802101433A4890
S1135080017010BD10B504002000083000F0FAF8DB
S1135090606800F083F832480078FB210140304812
S11350A001702F4800788006800E802101432C482F
S11350B001702C480078EF2101402A48017000BF9C
S11350C000BF29480078C0B280088007800F0228FA
S11350D0F7D125480078C006FBD422480078C0B236
S11350E04009012807D01F480078C006C00E2021BF
S11350F001431C4801701C480078802101431A4870
S1135100017010BD10B504002000083000F0BAF89A
S1135110606800F043F812480078FB210140104811
S1135120017000BF00BF11480078C006FBD40F48CF
S113513000784006FBD50B480078C0B2400901282E
S113514007D008480078C006C00E20210143054856
S1135150017006480078802101430448017010BDA5
S1135160004006400140064004400640044006401A
S113517000B50100684A117068490978FE220A40A6
S113518080B200120100C907C90F114363480170BE
S1135190604800784006FBD500BD000000B520281B
S11351A036D0FA210901884217D0FA2149018842F0
S11351B00AD05B49884207D0FA218901884215D078
S11351C0584988421BD02AE057480078C72101403B
S11351D0182008435449087021E053480078C72137
S11351E00140102008435049087018E04E480078E8
S11351F0C7210140202008434B4908700FE04A486A
S11352000078C7210140202008434749087006E080
S113521045480078C721014043480170FFE700BDBD
S113522080B5017802290AD1017A10220A43027258
S1135230017A20220A430272FFF7F6FE21E0017888
S1135240032906D1017AEF220A400272FFF75AFFBE
S113525017E00178052906D1017AEF220A4002728B
S1135260FFF710FF0DE02A480078C0B2400901287A
S113527007D027480078C006C00E202101432448E7
S1135280017001BD00B500210278D2B252081300AA
S1135290DB07DB0F002B02D00A0002211143027846
S11352A01300DB07DB0F002B02D00A00042111439B
S11352B00278D2B2D2081300DB07DB0F002B02D036
S11352C00A00202111430278D2B212091300DB072D
S11352D0DB0F002B02D00A00102111430278D2B256
S11352E092081300DB07DB0F002B02D00A00802199
S11352F011430E4A11700078C0B240090100C90779
S1135300C90F002903D009480078C007FBD500BDA8
S11353100140064004400640024006400340064067
S113532010270000204E00000040064000500640B8
S113533000B587B003A81021FCF756FA68460C2183
S1135340FCF752FA00205149088000205049088097
S11353504C20FFF70DFF0598402101430591069865
S11353604C490143069103A800F0B6F86846007A58
S113537001210143684601726846007A0421014311
S113538068460172444801900220694608706846E4
S1135390FFF746FF00F06FF800F002F807B000BD19
S11353A0F0B583B00024FF2000F017F905000020B9
S11353B000F017F969464871012000F012F96946B6
S11353C00871022000F00DF90700032000F009F92C
S11353D006003248FDF76EFEF6B20096FFB23B00BF
S11353E068460279684641792D48FDF763FE8220BC
S11353F02840822803D101242A48FDF75BFE82203D
S11354002840022803D101242748FDF753FEA806AB
S113541003D501242548FDF74DFE680603D5012474
S11354202348FDF747FE680703D501242148FDF70B
S113543041FEA80403D501241F48FDF73BFE2805BF
S113544003D501241D48FDF735FE680503D5012465
S11354501B48FDF72FFEA80503D501241948FDF7C5
S113546029FEE4B2012C02D01748FDF723FE1748A9
S1135470FDF720FEF7BDE0B515480190E12040029C
S1135480029069461348FCF70BFE07BDB8020020E2
S1135490BA02002000307000102700003C640000B5
S11354A0905E0000B0660000146A0000F06800001E
S11354B0206A0000D46400002463000080630000BC
S11354C0A0630000C46600002C6A0000EC640000C5
S11354D0002D310100B0064010B50E220023C02477
S11354E0A401002103681900C904C90F03681C0042
S11354F02405E40F002C01D002239A4303681C0006
S11355006405E40F002C01D004239A4303681C00B3
S1135510A405E40F002C01D008239A430378DB0789
S113552003D51300802212031A4303681C00640786
S1135530E40F002C03D013008022D2011A43036825
S11355401C00E406E40F002C03D013008022520157
S11355501A4303681C00A407E40F002C03D01300B3
S1135560802212021A4303681C00A406E40F002CD4
S113557003D01300802212011A4303681C0064063E
S1135580E40F002C03D013008022D2001A430368D6
S11355901C002407E40F002C03D013008022920186
S11355A01A43130042795207520F12041A4313008C
S11355B0027912061A4313000268D2099207920F65
S11355C012021A438368C4680E4802600E480360DE
S11355D00E4804600E48016010BD0E490968084079
S11355E0704781B069460C4A13680B600949096821
S11355F06A46C0B2105CC1400807000FC0B201B0D7
S11356007047000004800440088004400C8004407B
S113561018800440008004403C6B000080B51948A9
S11356200078002809D10120164908701648FAF7B5
S113563047FD164A1649FAF752FD16480078002825
S113564009D1012013490870134800F041F80F4AAA
S11356501249FAF744FD01BD0121C006C00E814084
S11356600F48016070470F49C0B2102242438918A5
S1135670C96801220A430B49C0B2102358430818D1
S1135680C2607047BE020020EC000020B00200207F
S1135690E3690000BD020020E0000020D56900009D
S11356A000E100E00071034080B500F021F8002023
S11356B0FFF7D9FF1620FFF7CFFF01BD80B500F03B
S11356C035F80120FFF7CFFF1720FFF7C5FF01BD15
S11356D010B582B004006946200000F045F82000AF
S11356E000F046F860600020A060200016BD0000B5
S11356F000B583B00C48FEF7DAFC009009E0684678
S1135700FEF7F0FC00680168896888476846FEF780
S1135710D8FC0548FEF7A3FC019001A96846FEF7F2
S1135720D7FC0028EBD107BDEC00002000B583B006
S11357300C4800F03AF8009009E0684600F03FF8A1
S11357400068016889688847684600F03CF80548A5
S113575000F040F8019001A9684600F042F80028E2
S1135760EBD107BDE000002080B500F044F802BD95
S113577038B504000121200000F046F8009000250F
S1135780009800F047F86A4601002000401C00F031
S113579042F86D1C009800F044F801006A46641C4D
S11357A0200000F038F8009832BD80B5406800F061
S11357B031F80168684600F036F8006802BD80B52B
S11357C000F038F802BD10B50400200000F037F8EE
S11357D0200010BD80B54168684600F024F80068D8
S11357E002BD80B500F034F80100C907C90F0120DB
S11357F04840C0B202BD10B582B004006946200022
S113580000F030F8200016BD80B50800002100F03B
S11358102DF802BD704780B50800110000F02CF887
S113582001BD001D704710B50400200000F031F8E0
S1135830200010BD80B5006800F02FF802BD10B53F
S113584004002068FFF7E6FF00682060200010BD18
S113585000B500680968884201D1012000E00020F9
S1135860C0B200BD80B500F01AF802BD80B50C21AD
S11358704843FAF749FC02BD10B50C0001000420AE
S1135880FAF700FD002802D02168016000E0002042
S113589010BD80B500F00CF802BD0830704710B59B
S11358A082B004006946200000F004F8200016BD10
S11358B00160704780B500F001F802BD7047000038
S11358C080B51D481D4988420CD0002008E01B49C2
S11358D0042242438958184A04234343D150401CAC
S11358E03028F4D3144800F03BF81549154A1648FB
S11358F0801A03E013780B70521C491C0300581ED5
S1135900002BF7D111491248401A02E000220A7014
S1135910491C0200501E002AF8D10E490E4A0F48B5
S1135920801A03E013780B70521C491C0300581EA4
S1135930002BF7D101BD00BF00FCFF1F00000000D9
S113594010000020486300006C6300003800002051
S1135950C0020020A0040020900300009003000077
S1135960014908607047000008ED00E010B500240C
S11359701F49FCF7F4F8401E1E490978090605D4AE
S113598020001D4C0443200080B230E01B490978FC
S113599049061DD41949097809060FD5174909780C
S11359A0C9B28906890EC0B28206920E914205D010
S11359B02000134C0443200080B218E00F490978FA
S11359C0C0220A408006800E10430C4908700CE087
S11359D00A490978C9B28906890EC0B28006800EC8
S11359E0814202D02000064C0443200080B210BD46
S11359F040420F0006000240143000000000024044
S1135A001830000080B5164800F036F8154A1649DB
S1135A10FAF765FB01BD017804220A43027070475E
S1135A2000B583B00E4800F030F800900CE06846F2
S1135A3000F034F800680168896888470B48FFF76C
S1135A40EAFF684600F02EF8054800F032F80190AD
S1135A5001A9684600F034F80028E8D107BD000029
S1135A60B8000020B0020020BF6900000090074089
S1135A7080B5FFF7D5FF01BD1CB504006A4601A936
S1135A80200000F027F8200016BD80B5FAF737FC97
S1135A9001686846FFF7BAFA006802BD80B500F0F5
S1135AA01DF802BD10B504002000FAF717FC200011
S1135AB010BD80B541686846FFF7A8FA006802BDCA
S1135AC080B500F010F80100C907C90F0120484053
S1135AD0C0B202BD80B500F010F802BD80B5006808
S1135AE000F017F802BD00B500680968884201D1CA
S1135AF0012000E00020C0B200BD10B582B0040057
S1135B006A46200000F007F8200000F008F82000A2
S1135B1016BD0C30704780B500F01EF802BD10B5FC
S1135B200400200000F021F860606068FAF7D4FBFC
S1135B30012101702000FAF7DDFB6168016020009B
S1135B40FAF7DDFB616801602000FAF7EFFB61689A
S1135B5001600020A06010BD10B582B004006A4648
S1135B60200000F03CF8200016BD70B584B005009C
S1135B7001212800401C00F036F806000024002013
S1135B8002903000FAF7B1FB02AA01002800801C41
S1135B9000F02FF8641C002001903000FAF7A8FBF5
S1135BA0010001AA2800801C00F023F8641C0020D6
S1135BB000903000FAF79AFB6A460100AD1C2800F9
S1135BC000F017F83000FFF736F9012101703000BA
S1135BD0FAF782FB00210170300004B070BD80B57B
S1135BE000F00DF802BD80B50800002100F010F8A7
S1135BF002BD80B50800110000F010F801BD10B519
S1135C0082B004006A46200000F015F8200016BD9A
S1135C1080B514214843FAF777FA02BD10B50C0099
S1135C2001000420FAF72EFB002802D0216801604D
S1135C3000E0002010BD80B500F001F802BD10B5F1
S1135C4082B00400087800900099200000F002F867
S1135C50200016BD80B500F001F802BD02B469460B
S1135C600A78027001B0704716B582B004002000B3
S1135C70FFF70BFF019001A902A8FFF734FF0028EA
S1135C8008D02000FFF715FF0090694603A8FFF72E
S1135C902AFF00E00020C0B200280ED0200000F04F
S1135CA018F82000FFF7F1FE11E0002102A800F02F
S1135CB02BF801002000FEF769FE03A902A8FFF7F4
S1135CC0FFFE0028F1D102992000FFF76AF904B021
S1135CD010BD10B504002000FAF70CFB0168200089
S1135CE000F018F82000FAF705FB61680160002055
S1135CF0A0602000FAF703FB616801602000FAF756
S1135D0015FB6168016010BD10B50468FAF7E6FA86
S1135D10200010BD70B505000E00340016E0200010
S1135D20FAF7E4FA01682800FFF7F4FF2000FAF715
S1135D30DCFA046831002800401CFFF728F901222E
S1135D4031002800401CFFF727F926002000FAF74D
S1135D50C3FA00780028E2D070BD38B504002000F2
